:020000040800F2
:10000000E8130020A9720008157100081771000894
:10001000197100081B7100081D7100080000000024
:100020000000000000000000000000001F71000838
:1000300021710008000000002371000825710008EC
:10004000D3720008D7720008DB720008DF72000864
:10005000E3720008E7720008EB720008EF72000814
:10006000F3720008F7720008FB720008FF720008C4
:100070002971000803730008077300080B73000858
:100080002F7100080F73000813730008177300081E
:100090001B7300081F7300082373000827730008F0
:1000A0002B7300082F7300083373000837730008A0
:1000B0003B7300083F730008437300084773000850
:1000C0004B7300084F730008537300085773000800
:1000D0005B7300085F7300086373000867730008B0
:1000E0006B7300086F730008737300087773000860
:1000F0007B7300087F730008837300088773000810
:100100008B7300088F7300089373000897730008BF
:100110009B7300089F730008357100083B7100084D
:10012000A3730008A773000841710008AB730008AF
:10013000AF730008B3730008B7730008BB730008FF
:10014000BF730008C3730008C7730008CB730008AF
:10015000CF730008D3730008D7730008DB7300085F
:10016000DF730008E3730008E7730008EB7300080F
:10017000EF730008F3730008F77300080000000035
:10018000FB730008FF7300082DE9F04F0FF2B01960
:10019000A1B0D9E90045CDE90045049100212A9E8E
:1001A000DFF8FC8B8DF843600D914FF0FF398246EC
:1001B00015461F460FE0AB4634461BF8011B04985A
:1001C000D0470028049000F0A7800D98401C641EC2
:1001D0000D90F2D135442878252807D100210791C8
:1001E000089109910A910B910C910DE06A464946DC
:1001F000284600F0EFFF060001D10D98A8E0DAD5FF
:100200000126E7E741F0010115F8010F2028F9D098
:1002100023280DD02B2804D02D2806D030280AD032
:100220007CE041F0020189B2EEE741F00401FAE717
:1002300041F00801F7E741F01001F4E700200F90CA
:1002400009E00F98404505DA00EB800302EB43021A
:10025000303A0F926D1C2A78A2F130000A28F0D3B0
:100260002A782E2A18BFCDF8389023D115F8010F1F
:100270002A2807D1386838606D1C50F8042B386084
:100280000E9217E02D280CBF15F8010B002000225C
:100290000E920AE040B90E9A424505DA02EB82045A
:1002A00003EB4403303B0E936D1C2B78A3F130021B
:1002B0000A2AEFD3ADF840100FF28C00297800F035
:1002C00093FF08B115F8010B8DF842009DF842002C
:1002D000682804BF2978682903D162208DF842007C
:1002E00007E06C2804BF28786C2803D171218DF8B1
:1002F00042106D1C12A806903A4615F8013B02A95F
:10030000504600F065F838B912AA02A9504600F02C
:10031000C7F900287FF55FAF484619E02A288DD13C
:100320003868386050F8042B3860002A0F9204D5E2
:10033000524241F004010F9289B26D1C90E7000017
:100340000000000000000000686A6C747A4C000035
:1003500021B0BDE8F08F622820D0682811D06A282B
:1003600003D06C2827D0712825D10868C01D20F043
:1003700007000860D0E900230830086019461046DD
:100380007047002A0A680A60106803D0121D0A60CC
:1003900000B217E0121D0A6080B217E0002A0A6856
:1003A0000A60106803D0121D0A6040B20AE0121DF4
:1003B0000A60C0B20AE0002A0A680A60106803D026
:1003C000121D0A60C1177047121D0A600021704794
:1003D0007CB50D4611461C462E69B4F1250200F08D
:1003E0004D811C3A00F08680121F022A40F2828062
:1003F0000E3A00F00781521F5AD0093A7AD0921E65
:1004000016D0521E35D0521E022A73D9121F30D078
:10041000521F00F09A80521E4AD0521E00F0E48013
:10042000D21E00F0FD80921E42D0D21E40D02BE1A1
:1004300095F83A206C2A09D06869421C6A610A68FA
:100440000A6052F8043B0A60335427E10A680A60E4
:1004500052F8043B0A600021009301914FF0FF32F3
:100460002A6329466A4600F096F9002840F1168171
:1004700001E195F83A000122FFF76DFFC5E900019F
:100480000023994204DA6869411C69612D210DE05D
:10049000288F810704D56869411C69612B2105E01B
:1004A000C00722D56869411C6961202131541CE0D4
:1004B00095F83A000022FFF74EFFC5E9000195F8D4
:1004C0003800010711D5D5E900230020834208BF79
:1004D00082420AD044F02000782806D16869302191
:1004E0003154401C411C69613454214668693044D0
:1004F000E86083E00868C01D20F007000860D0E9CC
:10050000002308300860C5E90023D5E90001C80FC1
:1005100004D06869411C69612D210DE0288F810795
:1005200004D56869411C69612B2105E0C00704D529
:100530006869411C69612021315468693044E86070
:100540002146284600F034FAA8E005F13A02507836
:1005500020B14FF0FF340FF6203070E010786228A1
:1005600008D0682824D06A2812D06C282ED0712890
:100570000ED02BE00A680A6052F8040B0A6020B91A
:100580004FF0FF340FF6083059E0E96A017085E05A
:100590000A680A6052F8040B0A6020B94FF0FF3471
:1005A0000FF6EC204BE0EA6AD317C0E9002375E0B0
:1005B0000A680A6052F8040B0A6020B94FF0FF3451
:1005C0000FF6CC203BE0E96A018067E00A680A6028
:1005D00052F8040B0A6020B94FF0FF340FF6B02038
:1005E0002DE0E96A016059E00A680A6052F8040BDC
:1005F0000A600021C5E90001EE607821284600F07C
:1006000029F94BE06C2285F83A200B680B6053F80F
:10061000042B0B6052BB4FF0FF340FF6A8200EE006
:1006200095F83A206C2AF0D00868086050F8044B1E
:100630000860EC603CB94FF0FF340FF66C2000F01E
:10064000EDFD201A76BD2E6B002E04D5204600F05D
:1006500007FE044608E032460021204600F01CFE5A
:10066000002814BF041B3446AC6117E0294600F093
:1006700092F8002812D54FF0FF3076BD6869411C12
:1006800069612521315409E06869411C69612522AD
:100690003254200002D0481C68617454002076BD9A
:1006A0002DE9F0410E460546716B7069B46A091A6E
:1006B000306A091AB069091A706A091AF069091AC8
:1006C00096F838000C1B410790460DD4002C0BDD2A
:1006D0002746B0682021A8470028B06057D0F06AAC
:1006E000401C7F1EF062F4D17369424631462846B1
:1006F00000F0AAFC00284AD1376A002F0ADDB06852
:100700003021A8470028B06041D0F06A401C7F1E0D
:10071000F062F4D1B369F2683146284600F094FCE7
:10072000A8BB776A002F09DDB0683021A847B06008
:1007300068B3F06A401C7F1EF062F5D1F068B169C1
:10074000F36942183146284600F07EFCF8B9B76AD2
:10075000002F09DDB0683021A847B060B8B1F06A59
:10076000401C7F1EF062F5D196F8380041070BD58A
:10077000002C09DDB0682021A847B06038B1F06ACC
:10078000401C641EF062F5D10020BDE8F0814FF0FE
:10079000FF30BDE8F0812DE9F0470E46A4B0356B7F
:1007A000002D8146904648BF6FF0004500F0A0FD47
:1007B000716B40180FF628118128D1E90023CDE98B
:1007C000012328BF4FF0FF303ED20024002D2FDD43
:1007D000D8F8001001AA684600F0FEFC0746002F7A
:1007E00035D4D8F8000008B97F1E30D4BD421FDBD5
:1007F0007069381881280AD30020706303AA314633
:100800004846FFF74DFF040012D40020706103A892
:10081000D6F814A03A466946504400F06FFDBA4439
:10082000C6F814A058F8040B002818BFED1BCDD152
:100830002CB903AA31464846FFF732FF044614B9E3
:10084000002070617063204624B0BDE8F0874FF04F
:10085000FF34F8E72DE9FC4B06468B463469BBF1C3
:100860006F0F08BF082505D04BF02001782914BF71
:100870000A2510253C27D6E90023BBF1640F18BFD9
:10088000BBF1690F9046994606D100218B4203DAED
:10089000D8F1000869EB49090020814508BF80456F
:1008A0001FD1306BE8B9082D4ED196F838000107FA
:1008B0004AD530203B2784F83B0045E000280ED580
:1008C00096F8380000F01400102808D1726B706997
:1008D000121A306A121A511A0029C8BF3162BDE8D3
:1008E000F38B01968DF800B0404649462A46EB1737
:1008F00000F07AFD30327F1ED2B23A2A04DB9DF836
:100900000000A0F151018A18E255404649462A46A6
:10091000EB1700F069FD894600228046914508BF2B
:10092000904504D00198C168E0198142DCD3082DBC
:10093000019E09D196F83800010705D5E15D3029FF
:1009400002D07F1E3020E055E019F060C7F13C0175
:10095000306BB1618142B1DA411A31624FF6EF700A
:10096000318F01403187BDE8F38B2DE9D043064636
:100970000F4614464FF00008DFF8289412E0E00715
:1009800007D542464B463046394600F0A5FD06469F
:100990000F464046494642464B4600F09DFD6410D6
:1009A00080468946002CEAD130463946BDE8D083DE
:1009B0002DE9F04705468A468EB0D5E900894AF010
:1009C0002000612802AF00900AD0286B002802D5D1
:1009D0000620286304E001BF0098672801212963ED
:1009E000D5E9006460004015401C0DD121030BD0F7
:1009F000AAF1610103201A29A86102D20FF2E8616D
:100A000010E00FF2E8610DE060004015401C0ED1CF
:100A100021030CD1AAF1610103201A29A86116D380
:100A20000FF2D061E868032200F068FCCAE124F00C
:100A30000043B3F5801F26F0000211D2002083424C
:100A400008BF8242019005D13046214612E00FF2E4
:100A5000A061E7E701AA3046214600F00FFE09E059
:100A6000D148D24900EB1350019004EA0102D04969
:100A700030461143C5E90001009A612A0DD1E868AA
:100A800030210170811CE960BAF1610F0CBF78213F
:100A9000582141706869801C6861D5E90023CDE95F
:100AA0000C23DDE90C0121F00041002200239942D2
:100AB00004BF9042002000F04D810098612840F072
:100AC0009C80286B00284CBF2120401C0090404691
:100AD000009E761C4946DDE90C8900F007FE01986E
:100AE0008DF8082038BF89F00049001F0190002EC2
:100AF0000DF1090040F33C8107464046494600227B
:100B0000002300F00BFE80F032814800400D00F120
:100B10001C0211D0002A0FDD40F2FF70824205DB7B
:100B2000A44909F000400143002012E06FF31E5178
:100B300041EA025140460CE029F0004128F0000053
:100B4000994208BF98420FBF49461C22494600F00F
:100B5000FDFD8046894600F097FEF61F002E0446F4
:100B600009DD00F0AFFE02460B464046494600F064
:100B7000BBFE80468946F81D072104E004F00F0201
:100B800000F8012D2411002C01DD491EF6D5491E67
:100B90005CBF002200F8012DF9D5E4E000201946E1
:100BA00002AA0A4400E05B1E12F80149491E844271
:100BB000F9D00F2804D10DF10900425C521C4254B7
:100BC000002904D50198001D02AF5B1C0190581E3E
:100BD0000CD43918AAF13A040A783032D2B2392A40
:100BE000C8BFA218401E01F80129F5D5286B0028BE
:100BF00040F1AF80591E2963ABE04046494600F002
:100C000075FD019938BF89F0004947F2975041437B
:100C1000694A91FBF2F20192D2F1070204DD4046EB
:100C20004946FFF7A2FE0AE0524200206349FFF75F
:100C30009CFE02460B464046494600F0C7FE8046F1
:100C400000985F4E6628286B06BF019C0A34062474
:100C50002418142CC8BF142430208DF808008946AD
:100C60000DF1090000E03846002C34DD074640460F
:100C7000494600F0CFFF01460A4607F10803042069
:100C80000A27B2FBF7F707EB870EA2EB4E023032D2
:100C900003F8012C0A22B7FBF2F202EB820EA7EB5B
:100CA0004E073037401E03F8027DE9D1083C002C86
:100CB00003F10807D7DD084600F0C0FF02460B46E7
:100CC0004046494600F010FE0022334600F004FC86
:100CD00080468946CBE70DF10901401A0DF109075D
:100CE00004E00199491E401E01917F1C397830298A
:100CF000F7D0009A662A02D10199491C03E0652ABF
:100D00000CBF012100212B6BCB189842B8BF431EAA
:100D1000002B1ED4834204DAF85C3528A8BF3920A2
:100D200000DA302019467A1E02EB010800E05B1E53
:100D300018F80199491E8145F9D0392802D1785C0B
:100D4000401C7854002904D50198401C17465B1CB0
:100D50000190019800B200901BB23A4651462846D5
:100D600000F033F82EE0C71D002E3FF7C6AE384620
:100D70000DF10901401A009903468842C8BF0B468D
:100D8000002B0DF109073FF531AF8342BFF606AFE7
:100D90000DF10900C05C07287FF700AF0F20FEE6C9
:100DA000CBCCCC0C0000244002FCFFFFFFFF0F80E7
:100DB0000000E03F0000F07FA08601000000F03F4F
:100DC00084D797410EB0BDE8F0872DE9F04F83B08E
:100DD00006468B469246994600F000FAB9F1000F9C
:100DE000406AD6F83080077803DC4FF001090FF233
:100DF000083ABDF930504BF02000662808BF6D1C42
:100E000017D0672840F0878015F1040FC0F2898061
:100E1000454580F2868096F838006D1C010702D4A3
:100E2000C145B8BFC8462DB2B8EB050848BF4FF062
:100E300000082DB2F068B169002D27DC4A1C302370
:100E40004354B8F1000F03DC96F83800010702D5CF
:100E5000F0688754521C18EB050FB8BFC8F10005A5
:100E60002DB2A8446842C845B8BFC146B26170629D
:100E70000FFA89F4F461F068B369224651461844C8
:100E800000F03CFAA8EB0400B062C6E02A469145A7
:100E9000084418DA4A46514600F030FAB06948442E
:100EA000B061A5EB0901B8F1000F716203DC96F89F
:100EB00038100A0704D5F1680F54F069401CF0613E
:100EC000C6F82880A9E0514600F018FAB069281841
:100ED000B8F1000FA9EB050303DC96F838100A07F8
:100EE00002D5F1680F54401CB0610FFA83F9C84570
:100EF000B8BFC146F068B3690FFA89F422460AEB1D
:100F00000501184400F0FAF9B0692044B061A8EB7B
:100F10000400706281E0BBF1610F16D14FF0700BDD
:100F200018E0C14504DA96F838100A0758BFC846D9
:100F3000B8F1010848BF4FF00008BBF1670F14BFBC
:100F40004FF0450B4FF0650B04E0BBF1410F08BFBC
:100F50004FF0500BB169F368481CB061B8F1000F55
:100F60001AF8012B5A5403DC96F838100A0719D5E1
:100F7000F168431CB3610F54B8F1000F12DDA9F101
:100F800001073FB2B845B8BF4746F0683FB23A469E
:100F90005146184400F0B2F9B0693818B061A8EBB6
:100FA00007007062F068B1690844002D80F800B055
:100FB00003D42B214170811C03E02D2141706D422F
:100FC000811C00206A460AE02B460A2493FBF4F5B4
:100FD00005EB8504A3EB440302F8013B401C2DB252
:100FE000002DF1DC012806DC4BF02002652A04BF4D
:100FF000302201F8012B48B9302001F8010B07E03D
:10100000401E1DF80020303201F8012B0028F7DCCB
:10101000F068B2691044091AF16196F8380000F0DE
:10102000140010280DD17169B0694118706A411817
:10103000F0694118B06A4118706B8142BCBF411A17
:10104000316203B0BDE8F08FF8B505460E4617468D
:101050001C46002074B117F8011BB068A847B060A7
:1010600030B1F06A401CF0620020641EF3D1F2BD82
:101070004FF0FF30F2BD00007072696E74665F73EE
:101080003A20256E20646973616C6C6F776564002B
:101090007072696E74663A2062616420256E206108
:1010A0007267756D656E74007072696E74665F73D9
:1010B0003A2062616420257320617267756D656EE8
:1010C000740000007072696E74665F733A2062612A
:1010D0006420256C7320617267756D656E74000005
:1010E00000000000000000006E616E004E414E00E6
:1010F000696E6600494E46003000F0B40246106842
:1011000095681318506803EB5004C00721D54D446F
:101110001FE0F0BC02F10C00704713F8017B05F8EA
:10112000017B491EF9D1A0B1B60813F8011B06F0E6
:101130000306032E08BF13F8016B01EB0621494299
:10114000801C294405D011F8016B05F8016B401E85
:10115000F9D1A342DDD013F8016B16F0030104BFEF
:1011600013F8011BC91C30090F28DAD113F8010B41
:101170000F30D6E71A48704730B45368D418042BA0
:1011800009DA41B1057804F8015B10F8015B15B18B
:101190005B1C491EF3E7536030BC704738B51446FA
:1011A0001D4661B1FFF7E8FF61686A6B2046904712
:1011B0006FF00102811A02D0491E03D005E06FF0E2
:1011C000010032BD4FF0FF3032BD0021616032BD01
:1011D000DA6B1047024BE1E7014BF9E70148704732
:1011E000A0080020680800200278C9B28A421AB11B
:1011F0001CBF10F8012FF9E718BF00207047B1F5A8
:10120000807F02D34FF0FF3070470170012070479C
:101210000078401E8041C043C00F704780B508B9B8
:101220000FF21C0005490B681BB1222200219847D0
:1012300001E000F010FD222002BD0000DC0F0020C4
:10124000636F6E73747261696E742068616E646C32
:1012500065723A20626164206D6573736167650031
:1012600000F10103810704D010F8011B89B1810747
:10127000FAD10268B2F10131914311F0803F04BF0D
:1012800050F8042FF6E710F8011B11B110F8011BFC
:10129000FBE7C01A70470000C9B2830706D0521E90
:1012A00022D310F8013B9942F7D11FE0083A13D33B
:1012B00002F1040241EA012141EA014150F8043BF4
:1012C000121F21BF4B40A3F1013C2CEA030C1CF080
:1012D000803FF3D0C9B2001F083210F8013B521E04
:1012E00028BF91EA030FF8D818BF0120401E7047AD
:1012F00080B5FFF73FFF006C02BD000062B38B07B3
:1013000008D0521E11F8013B00F8013B00F0248088
:101310008B07F6D1830740F0208000BF103A07D337
:1013200030B4B1E83810103AA0E83810F9D230BC27
:10133000530724BFB1E80810A0E8081044BF51F8D3
:10134000043B40F8043BD20724BF31F8022B20F8BD
:10135000022B44BF0B7803707047121F17D35B003A
:1013600009D151F8043B20F8023B1B0C121F20F856
:10137000023BF6D20BE051F8043B00F8013B1B0A9C
:1013800020F8023B1B0C121F00F8013BF3D238BFC0
:10139000121D521E24BF11F8013B00F8013BF8D882
:1013A0007047000013F0004C03D55B42524263F1DA
:1013B00000039CEA210C00F0178010B5644603D3AB
:1013C0004942404261F1000100F00EF8640004D38C
:1013D0004942404261F10001244203D55B4252423E
:1013E00063F1000310BD00001B4213D1094236D146
:1013F0002AB18446B0FBF2F002FB10C2704700F045
:101400002DBCFCD30022002370470B0002000021FA
:1014100000207047904271EB030CF6D370B5B1FA1F
:1014200081F4B3FA83F52C1BA340C4F1200532FAF2
:1014300005F63343A2405FF00046E64002E05B0859
:101440005FEA3202841A71EB030524BF2046294665
:101450007641F4D302000B003000002170BD012A58
:10146000CFD970B5140C20D0B1FA81F4B2FA82F55C
:10147000C4F120046419B4F12006D6D3B2405FF061
:101480000044F440002502E052085FEA3303C61A24
:1014900071EB020E24BF3046714664416D41F3D3B7
:1014A00002000B002000290070BD0C46B1FBF2F1D8
:1014B00002FB11452D0445EA1045B5FBF2F402FB91
:1014C000145580B240EA0545B5FBF2F002FB10521C
:1014D00040EA044070BD0000B0B581EA030C0CF096
:1014E000004C40F2FF7515EA11541DBF15EA135761
:1014F000AC42AF4239E0E41923EA455343F4801388
:10150000C90241F0004141EA505EC7021100A7FB49
:10151000020200284FF00000EEFB01204FF0000116
:10152000E3FB072118BF42F00102401800214941A6
:10153000E3FB0E01A4F580640F0302D25200404188
:10154000494154F101046CDD470872F1004250F149
:10155000000051EB0451A1F580115CBF41EA0C0180
:10156000B0BD4CEA05510020B0BD05EA1357AC42AE
:1015700014BFAF4241E050EA410E1CBF52EA430E95
:1015800002E061460020B0BD24423C441BD15FEA2A
:10159000070EF6D0090302BF01460020AEF1140E7B
:1015A000B1FA81F7AEEB070401FA07FE0C37C7F179
:1015B000200100FA07F7C8404EEA000E23EA45531F
:1015C00043F48013A2E733F00043B3FA83F704BF78
:1015D000B2FA82FE77440B3FE41BB7F1200E2FBF17
:1015E00002FA0EF3BB40C7F1200E22FA0EFE38BFFE
:1015F00043EA0E03BA40641C82E750EA410E14BF6E
:1016000052EA430E6FF000014FF4001717EB430F3F
:101610008ABF194617EB410FB5E74CEA0551002088
:10162000B0BDD4F10104B4F120070FDAC4F12007F2
:10163000520828BF42F0010210FA07F501FA07F735
:10164000E1BF2A43E0403843E1400FE0352C98DC0D
:10165000C7F1200452EA400220FA07F218BF42F014
:10166000010231FA07F0A1400A43002172F1004261
:1016700050F1000051EB0C01B0BD000010B5144654
:1016800000F002F8226010BDC1F30A5343B14A00D2
:1016900012F5001F28D2A3F2FE32A1EB02517047CF
:1016A00050EA410C20D001F0004C31EA0C01B1FAB3
:1016B00081F204BFB0FA80F3D2180B3AB2F12003E2
:1016C0002CBF00FA03F1914041EA0C013EBFC2F188
:1016D000200C20FA0CF319439040524240F2FD33A3
:1016E000D21A01EB03517047002270474FF4001CDF
:1016F0001CEB410F94BF1CEB430F09E041EA030CC4
:1017000050EA4C0C52EA0C0C03D2994208BF9042AA
:10171000704714BF8B428242704700004FF4001C98
:101720001CEB410F94BF1CEB430F09E041EA030C93
:1017300050EA4C0C52EA0C0C03D28B4208BF824296
:10174000704714BF9942904270470000124254D42F
:1017500040F2FF7C1CEA11530FD0634531D09B1837
:1017600063453CBF01EB0251704701F0004141EA83
:101770000C510020AFF30080704750EA410320D0A5
:1017800001F0004C91EA0C011CD0B1FA81F30B3B43
:101790009A420DD9D21A994051EA0C01C3F1200C9A
:1017A00020FA0CFC61449840531C40F2FF7CD7E7C0
:1017B000914041EA0C01C2F1200C20FA0CF31943CC
:1017C00090407047B0FA80F31533202BE0D3202AE5
:1017D000EED3203A203B9A4209D9D21A00FA03F1FB
:1017E00041EA0C010020531C40F2FF7CB8E700FAEC
:1017F00002F141EA0C0100207047524240F2FF7CA6
:101800001CEA11530DD06345DBD0B2EB030C3CBF97
:10181000A1EB025170470CF1010221EA035141F49E
:10182000801150EA410CCCD001F0004C352A27DC65
:1018300030B481EA0C01B2F1200309DAC2F12003CD
:10184000044601FA03F5D0402843D1409C400CE007
:10185000C3F12002450020FA03F418BF44F001044C
:1018600021FA03F091400C43002174F1004550F13E
:10187000000051EB0C01244230BC7FF47BAF704779
:101880006146002076E70000C1F30A5340F2FE32C1
:101890009B1A14DDD3F120034FEAE17208DDC9027F
:1018A00041EA505141F00040D84080185040704704
:1018B00003F2E13010B1D24382F0004070470020C3
:1018C00070470000C11768B14840401AB0FA80F272
:1018D0009040D21CC907C2F5846241EA025202EB71
:1018E000D02140057047000070B44FF0004591EAE8
:1018F000030F40F1BD816B40841A71EB030603D2E4
:10190000001BB141121973414FF4001C1CEB410F35
:1019100034BF7CEB430442E00C0DA4EB1356352E90
:101920004FDC45EAC323DB0A45EAC121C912B6F1FF
:1019300020050DDD63FA05F6EB4086EA0305124249
:1019400018BF45F00105C01851F100010CD213E099
:1019500062FA06F5F2405540F3415A40B340F34075
:101960005A408018594107D349085FEA30005FEABE
:10197000350528BF45F0010501F58011420875F1D4
:10198000004250F1000041EB04514E0016F5001FDB
:1019900070BC38BF70470020090D090570471CEB6B
:1019A000410F10D252EA43060BD0BCEB410F05D8D1
:1019B0000C0DAB43661E342EB6DD02E0AB4380183F
:1019C000594170BC704770BC70470000F0B540F2E0
:1019D000FF7581EA030C0CF0004C15EA11541DBF91
:1019E00015EA1357AC42AF42E5E0BC41C1F3130125
:1019F000C3F31303801A994143F4801304D2641E85
:101A00004000494180185941C90241EA5051B1FB97
:101A1000F3F603FB1611A2FB0675D7EBC020A94114
:101A200002D2761E80185941C90241EA5051B1FBD9
:101A3000F3FE03FB1E11A2FB0E75D7EBC020A941DC
:101A400003D2AEF1010E80185941890241EA90514A
:101A5000760546EA8E2EB1FBF3F603FB1611A2FBC8
:101A60000675D7EB8020A94102D2761E8018594115
:101A7000C90241EA50514EEA060EB1FBF3F603FBF0
:101A80001611A2FB0675D7EBC020A94102D2761E23
:101A900080185941C90241EA5051B1FBF3F703FBE9
:101AA0001711A2FB0735D3EBC020A94167F100074E
:101AB0000CBF004247F0010766F3D5274FEA1E31FD
:101AC000B80814F5806412DDBD0775F1004250EBD3
:101AD0000E5051EB045111F5801F5CBF41EA0C011F
:101AE000F0BD4CF07F6141F0E0410020F0BDBD074A
:101AF0006D0840EA0E5041F48011D4F10104B4F1B4
:101B000020060ADAC4F120060200E04001FA06F3DA
:101B1000E1401843B24015430EE0342C13DCC6F10B
:101B2000200445EA40056D0820FA06F2154321FA23
:101B300006F0A1400D43002175F1004250F1000074
:101B400051EB0C01F0BD00205FEA0C01F0BDCFB9F4
:101B500092185B41B3FA83F704BFB2FA82F6BF1959
:101B60000B3FB7F120062FBF02FA06F3BB40C7F1C7
:101B7000200622FA06F638BF3343BA401CB1E419F6
:101B8000641E33E77F4231F00041B1FA81F404BFB3
:101B9000B0FA80F6A4190B3CB4F120062FBF00FA6E
:101BA00006F1A140C4F1200620FA06F638BF314301
:101BB000A0403C1B1AE7AC421ABF05EA1357AF42DC
:101BC00012E050EA41061CBF52EA4306BFE750EA62
:101BD0004107304661461CBF41EA0551F0BD52EA5B
:101BE000430C08BFC143F0BD00204FF4001616EBB4
:101BF000410F98BF16EB430F08BF16EB410F24BFF0
:101C0000C14305E016EB430F0CBF61464CEA05519A
:101C1000F0BD0000400D491840EA81200CD2490D6A
:101C2000A1F58061491C40F0004005DBD1F11F01A6
:101C300054BFC840C017704700207047014648B1E4
:101C4000B0FA80F18840C91CC1F58461090501EB37
:101C5000D02140057047012000F0BEB87047000059
:101C600070B44FF0004591EA030F7FF545AE6B402D
:101C7000841A71EB030604D26E40001BB1411219A5
:101C800073414FF4001C1CEB410F34BF7CEB430647
:101C900082E00C0DA4EB1356362E7BDC012E45EAB8
:101CA000C32341DC43EA525312BFD20292025B08C3
:101CB000240545EAC12141EA5051D2EBC0209941A7
:101CC00025D407D1B0FA80F610FA06F162D00020D0
:101CD000203608E0B1FA81F6B140C6F1200220FAC0
:101CE00002F21143B0404FEAF474B4EB465434F0BE
:101CF00001064FEA74040AD8D6F50016760D04F0F2
:101D00000044F04061FA06F25040F1404840C00AF9
:101D100040EA415021F0004128BF5FEA500550F1F0
:101D2000000044EBD12135E0DB0A45EAC121C90AB4
:101D3000B6F120050EDD42EA0242120CC5F1200682
:101D400003FA06F6EB4042EA06056D42984161F15E
:101D500000010DE062FA06F5F240554063FA06FC18
:101D600082EA0C02F3405A406D42904161EB03015C
:101D700011F4801F05D1641E620502D06D00404140
:101D8000494121F48011430875F1004350F10000EE
:101D900041EB045170BC70471CEB410F15D223F08E
:101DA000004352EA43060BD04FEA4C0CBCEB410F08
:101DB00004D80C0D661E342EB7DDEBE7801A99416E
:101DC00050EA410608BF0021E4E708BF1CEB430FBF
:101DD00028BF6FF00001DDE780B5AFF30080024A55
:101DE00011001820ABBEFBE7260002000000000037
:101DF0002DE9F84C2DED0A8B82B041EC180B149CA8
:101E000043EC192B0CB10020206051EC190B20F091
:101E1000000621F000470020874208BF864213D009
:101E200053EC182BDFF8281600F076FD0CD0DFF805
:101E30001C1600F071FD0BD151EC190B4800401538
:101E4000401C05D1090303D102B0DFF80416F9E202
:101E500051EC180B48004015401C0FD051EC180BEA
:101E600021F000410022914208BF904206D051EC7F
:101E7000190B48004015401C40F0F78051EC180B3E
:101E800048004015401C05D1090318BF51EC180B40
:101E900040F0D68251EC190B48004015401C05D18A
:101EA000090318BF51EC190B40F0CA8251EC190B11
:101EB000480001244015401C62D051EC190B4B0026
:101EC00043EAD07342000026B34208BFB24204D1B5
:101ED000B0EE49AAF0EE69AA19E040F23345A5EB4D
:101EE0005352352A04DB00F0000001F000410CE001
:101EF000202A03DD203AD140914000E001D10020AA
:101F000003E0002AC4BFD040904041EC1A0B53ECD0
:101F1000192B51EC1A0B00F0FFFC18BF00244B00EA
:101F200043EAD0734200B34208BFB24204D1B0EEDC
:101F30004A0AF0EE6A0A19E040F23445A5EB535222
:101F4000352A04DB00F0000001F000410CE0202AFB
:101F500003DD203AD140914000E001D1002003E0B0
:101F6000002AC4BFD040904041EC100B44B153EC68
:101F70001A2B51EC100B00F0CFFC0CBF00240124F5
:101F800051EC180B48004015401C0ED109030CD130
:101F900051EC180BC80F25D153EC192BDA0F0CBFDD
:101FA0009FED8D0B9FED8E0B48E251EC190B480015
:101FB0004015401C28D1090326D153EC182B23F0DF
:101FC0000041B1F5801F22F000002ED2002399427B
:101FD00008BF984200932DD06A4651EC180BFFF7CA
:101FE0004DFB27E051EC190BC80F06D1002C0CBF9C
:101FF0009FED790B9FED7C0B20E2002C0CBF9FED39
:10200000780B9FED7B0B19E2002C1ABF51EC180BDB
:10201000C80F002053EC192BDA0F1FD100280CBF7A
:102020009FED6F0B9FED720B08E2DFF8284404EB85
:102030001150009051EC190BC80F07D100990029DD
:10204000CCBF9FED650B9FED660BF7E10098002874
:10205000CCBF9FED630B9FED600BEFE100280CBF41
:102060009FED5D0B9FED600BE8E151EC190B4B0010
:1020700043EAD073420000260027BB4208BFB242A9
:1020800004D1B0EE49AAF0EE69AA19E040F2334556
:10209000A5EB5352352A04DB00F0000001F00041AB
:1020A0000CE0202A03DD203AD140914000E001D12C
:1020B000002003E0002AC4BFD040904041EC1A0B3E
:1020C00051EC180BC80F11D053EC192B51EC1A0B13
:1020D00000F022FC0AD0AFF3008002B04FF0FF30D6
:1020E000BDEC0A8B6FF00041BDE8F48C53EC182B6B
:1020F00023F00041B1F5801F22F000000AD2B9425E
:1021000008BFB042009611D06A4651EC180BFFF799
:10211000B5FA09E0CF4E06EB11500090DFF8A0139E
:10212000CD4803401046194341EC180B51EC180BF5
:10213000C80F08BF002638D021F0004053EC182B00
:10214000034643EC182B51EC1A0B4B0043EAD073B7
:1021500042000026BB4208BFB24204D1B0EE4A0A98
:10216000F0EE6A0A19E040F23445A5EB5352352AE5
:1021700004DB00F0000001F000410CE0202A03DD48
:10218000203AD140914000E001D1002003E0002A34
:10219000C4BFD040904041EC100B53EC1A2B51ECD3
:1021A000100B00F0B9FB18BF01260098012823D1BD
:1021B00051EC180BA94AAA4BFFF798FA1CD253EC22
:1021C000182B00204FF08041FFF786F900259FED86
:1021D000C3BB41EC180B2DE0000000000000F07FB5
:1021E0000000000000000000000000000000F0FF00
:1021F000000000000000008053EC182B00209949DB
:10220000FFF76AF99FED98AB53EC1A2BFFF728FD07
:10221000FFF73AFBA0F120052846FFF753FB002209
:10222000934BFFF759F953EC1A2BFFF719FD41ECCB
:102230001B0B6D0151EC180B53EC1B2BFFF754FBE0
:1022400041EC1A0B53EC182B51EC1B0BFFF708FD5C
:1022500002460B4651EC1A0BFFF7B8FB41EC180B8A
:1022600053EC182BFFF738F941EC1C0B53EC1C2BEB
:1022700080488149FFF730F9804A814BFFF7F0FC35
:1022800053EC1C2BFFF728F97E4A7F4BFFF7E8FC45
:1022900053EC1C2BFFF720F97C4A7D4BFFF7E0FC49
:1022A00053EC1C2BFFF718F97A4A7B4BFFF7D8FC4D
:1022B00053EC1C2BFFF710F9784A794BFFF7D0FC51
:1022C00053EC1C2BFFF708F9764A774BFFF7C8FC55
:1022D00053EC1C2BFFF700F953EC1A2BFFF704FB10
:1022E00082468B4600205A4953EC1B2BFFF7FCFA21
:1022F00000224FF08043FFF7EFF852465B46FFF7AE
:10230000AFFC53EC182BFFF7E7F841EC100B0FF282
:10231000E810471953EC1A2B51EC100BFFF7A0FCF7
:1023200041EC180B0098FFF7CDFAD7E90023FFF72F
:1023300097FC41EC1A0B53EC182B5C485C49FFF7F7
:10234000CBF853EC1A2BFFF78BFC53EC192BFFF750
:10235000C3F80022574BFFF7C9F941EC1B0B6AD3B6
:102360000122554BFFF7DAF95BD9C80F53EC1B2B51
:102370001ABF002051495249FFF772FCFFF784FA57
:10238000054653EC182B51EC190BFFF7A5F88246C4
:102390008B46D7E90201D7E90423FFF761FC53EC30
:1023A000192BFFF799F89FED47BB53EC1B2BFFF759
:1023B00093F852465B46FFF753FCCDE9000153EC1E
:1023C0001A2B51EC190BFFF787F807468B46284666
:1023D000FFF778FA02460B4638465946FFF784FA6B
:1023E00053EC1B2BFFF778F8DDE90023FFF738FCEF
:1023F0000CB12560002500950022154B00F09CFAD9
:1024000041EC100B20F0000221F000430020834239
:1024100008BF82420FD048004015401C03D1090379
:1024200001D19FED2A0B4EB151EC100B81F0004110
:1024300041EC100B02E09FED270BF4E751EC100B81
:102440000DF1080DBDEC0A8BBDE8F48C0000F0BF67
:102450000000F03F02FCFFFFFFFF0F80CD3B7F66D7
:102460009EA0E63F00005040000000000000E03F5A
:102470000000903FF7DE29BFD8F8C23FF4B3FECC8E
:102480001A99C33F62CB68D96F46C73FC6C912DAF3
:10249000C471CC3F4AE98A942449D23FF75F9799A7
:1024A0009999D93FBC5555555555E53FFE822B6549
:1024B0004715F73F0000E0C00000E0400000E0BF2B
:1024C0000000E03FEF39FAFE422EE63F0000000038
:1024D0000000F07F0000000000000000000000008D
:1024E0000000F03F80B541EC100B0020009051EC53
:1024F000100BFFF77DFC04BD000000000000F0BFE2
:1025000000000000000000800000000000000080CB
:102510000000000000000000000000C05294EEBF68
:1025200000000048204E51BE000000F86467BCBCAB
:102530000000000000000000000000208133EDBF1B
:1025400000000080B3DB14BE000000506706A3BC8F
:102550000000000000000000000000D0E9DCEBBF3C
:1025600000000008C39259BE00000080B0D3B8BC80
:10257000000000000000000000000070F98FEABFBA
:10258000000000C0A51028BE000000E8BFC0B0BC1D
:10259000000000000000000000000070284CE9BFAF
:1025A00000000060134B42BE000000C03D20B8BCDC
:1025B000000000000000000000000050FA10E8BF1A
:1025C000000000C05FF62BBE000000905C71A7BC4D
:1025D000000000000000000000000020FCDDE6BF5D
:1025E000000000C0F8F154BE00000018E9F6B9BCC4
:1025F0000000000000000000000000D0C3B2E5BFF2
:1026000000000070E43254BE00000050DB06B4BC91
:10261000000000000000000000000010EF8EE4BF8A
:1026200000000020F36252BE000000C02A879ABC5E
:102630000000000000000000000000B02272E3BFB4
:10264000000000F0E8E056BE00000028352DBDBCBB
:102650000000000000000000000000000A5CE2BF73
:10266000000000B0FA8E41BE00000040AE6FBDBC5D
:10267000000000000000000000000000564CE1BF18
:10268000000000F015CD5FBE00000000141C90BCDF
:10269000000000000000000000000040BD42E0BF5C
:1026A00000000030F93457BE000000E06C1E93BCFF
:1026B0000000000000000000000000E0F57DDEBF2B
:1026C000000000B08A535EBE00000080DA77AABC2A
:1026D0000000000000000000000000C09D81DCBF81
:1026E00000000000FFA226BE0000006057E2B0BC60
:1026F000000000000000000000000060F98FDABF59
:10270000000000580A8151BE000000F05F60B8BCB4
:1027100000000000000000000000000098A8D8BFE2
:10272000000000607A7F45BE000000D05433A3BC97
:102730000000000000000000000000600FCBD6BFCA
:10274000000000D091CB40BE000000406D1BA0BC3B
:102750000000000000000000000000A0FBF6D4BF55
:1027600000000098C5CE52BE000000003A397EBC81
:102770000000000000000000000000E0FE2BD3BFBE
:102780000000004073872BBE00000000926879BCF7
:10279000000000000000000000000040C069D1BF40
:1027A00000000058F16353BE00000080438D7CBCE4
:1027B000000000000000000000000080D85FCFBFD4
:1027C000000000181F8354BE000000B03F42A2BCAE
:1027D00000000000000000000000008067FCCBBF8C
:1027E00000000060FAFF53BE00000050E00DB8BCCE
:1027F00000000000000000000000000098A8C8BF12
:10280000000000607A7F35BE000000C0543393BCE6
:10281000000000000000000000000000DC63C5BFF5
:1028200000000058D6FF54BE00000000396490BC80
:102830000000000000000000000000C0AD2DC2BF7D
:1028400000000080A45915BE000000E0484BABBC5E
:102850000000000000000000000000801A0BBEBF56
:1028600000000050BF3C5ABE000000A0B364B6BCDC
:1028700000000000000000000000008004D6B7BF88
:1028800000000040BBCF36BE0000008076CEA8BC62
:1028900000000000000000000000008032BBB1BF5B
:1028A000000000402A0043BE00000028C60CBDBC4A
:1028B0000000000000000000000000009473A7BFAB
:1028C000000000182B3B59BE000000C0E55DA5BC10
:1028D000000000000000000000000000EE4397BF71
:1028E000000000A0E6C340BE00000020958DB5BCEE
:1028F0000000000000000000000000000000008058
:1029000000000000000000800000000000000080C7
:10291000000000000000000090420CD141EA030CCE
:1029200050EA4C0C07D0994205D14FF4001C1CEB27
:10293000410F38BF89427047F8B52DED0A8B41EC45
:102940001A0B48004015109D401C43EC182B24D056
:1029500051EC1A0B21F000410022914208BF904235
:102960001BD051EC180B48004015401C15D051EC01
:10297000180B31F0004108BF90420ED051EC1A0BF9
:10298000DFF87433FEF7B2FE80F0B18051EC180B23
:102990009FED870B01F00042BAE051EC1A0B4800A2
:1029A0004015401C02D1090340F0A08151EC180BE6
:1029B00048004015401C01D109035DD151EC180BB2
:1029C00020F0000221F000430020834208BF824231
:1029D00008D151EC1A0B48004015401C4CD109039A
:1029E0004AD10DE048004015401C12D1090310D116
:1029F00051EC1A0B48004015401C3DD109033BD156
:102A0000AFF30080BDEC0A8B4FF0FF306FF0004158
:102A1000F4BD51EC1A0B21F0004100220023994231
:102A200008BF90422BD151EC180B4800400D05EB2C
:102A3000000237D151EC180B21F00041994208BF38
:102A4000984206D02A4651EC180BFEF77FFE41EC67
:102A5000180B51EC180B20F0000221F0004300206D
:102A6000834208BF824205D048004015401C03D174
:102A7000090301D1AFF3008051EC180B38E151ECA0
:102A80001A0B48004015401C2AD1090328D153ECE9
:102A90001A2B51EC180BBDEC0A8B01B0BDE8F040CD
:102AA000FEF71ABD002AC5DD40F2FF7082420FDB3F
:102AB0009FEDA50B51EC100B084653EC182B03F0BF
:102AC0000041084353EC102B034643EC182BC0E79E
:102AD0006FF31E5141EA025153EC182B0B46F4E7F9
:102AE00051EC180B9FED320B01F0004210E0012277
:102AF000824BFEF713FE11D89FED930B51EC100B98
:102B00000A4651EC180BAFF3008001F0004002437D
:102B100051EC100BBDEC0A8B1146F4BD53EC1A2B93
:102B200077487849FEF7D8FC41EC100B53EC102B9A
:102B30009FED759B03F0004251EC190B0C461443BA
:102B400053EC192B51EC100B2346FFF789F8FEF7D5
:102B50009BFE0446FEF7B6FE41EC1B0B53EC1B2B11
:102B60004FF078406A49FEF7B7FC02460B4651EC3D
:102B70001A0BFEF7B9FE06460F4653EC1B2B6548B1
:102B80006549FEF7A9FC02460B4630463946FEF77A
:102B9000ABFE41EC1A0B21F0004100225F4BFEF727
:102BA000A5FD09D2B0EE48AAF0EE68AA56E000BF33
:102BB000000000000000000053EC1A2B51EC1A0B2F
:102BC000FEF78AFC41EC1B0B53EC1B2B5448554978
:102BD000FEF782FC544A554BFFF742F853EC1B2B8F
:102BE000FEF77AFC41EC1C0B53EC1B2B504851496F
:102BF000FEF772FC504A514BFFF732F853EC1B2B97
:102C0000FEF76AFC53EC192BFFF72AF853EC1A2B4A
:102C1000FEF762FC41EC190B53EC1C2BFFF720F87C
:102C20009FED47AB53EC1A2BFFF71AF806460F46F9
:102C300051EC1C0B53EC192BFEF756FE53EC1A2BE0
:102C4000FFF70EF802460B4630463946FEF7BEFE49
:102C500053EC182BFEF740FC41EC1A0B51EC1A0B0D
:102C60002A194800400D02EB00031DD0002B1BDD8C
:102C700040F2FF7083420DDB9FED330B51EC100BE4
:102C8000084653EC1A2B03F00041084353EC102B79
:102C9000034606E06FF31E5141EA035153EC1A2B31
:102CA0000B4643EC1A2B0EE051EC1A0B21F00041BD
:102CB0000024A14208BFA04205D051EC1A0BFEF738
:102CC00045FD41EC1A0B51EC1A0B20F0000221F0EB
:102CD00000430020834208BF824205D048004015CF
:102CE000401C03D1090301D1AFF3008051EC1A0B52
:102CF000BDEC0A8BF4BD000000C89CC000C89C401D
:102D0000FE822B654715F73F000000000000E03F02
:102D1000422EE63FF2E4D5BCE7E84B3E0000903C93
:102D2000112E5781A03F503F5843128C8F71BC3FEA
:102D30004BE8A541B752013F0BBDF3DAE8708C3F79
:102D4000000000000000F03F000000000000F07FE5
:102D5000F8B5040016D004F13C05687820B90021CC
:102D60002970204600F035FC00F080F800F0F3FCFC
:102D700001466068DFF8C423904205D2DFF8C00343
:102D8000814205D20120F2BDDFF8B8038142F9D3B8
:102D9000DFF8B403B1FBF0F320684668B60943EAF4
:102DA000861646602668376A6068904206D34FF4FC
:102DB000967043434FF47A70B3FBF0F35B1CBF098A
:102DC00043EA87133362491E2368DE6967689742C6
:102DD00006D27F0000F044F8042913D2042111E048
:102DE000A06820B907EB470700F03AF805E0192082
:102DF000474300F035F841F4804108050CBF01213C
:102E000041F40041DFF8440306400E43DE612168CF
:102E10000A68E06922F0C0020243206A02430A60A5
:102E20002168DFF858038A68024020690243E0689D
:102E300002438A602168CA68A3696069120A034371
:102E400043EA0222CA602068016841F00101016082
:102E5000002068602020687000202063A870F2BD08
:102E6000B1FBF7F1491CC1F30B01704724206870D6
:102E70002068016849084900016070472DE9F8435E
:102E800004460E4600F0F9F904F13C07054678784F
:102E900020287CD100F04AF900F07CFA002876D195
:102EA0003878012873D00121397000F058F9206872
:102EB00000F01EF91020B87000207860C4F824805B
:102EC000A4F82A9000F02CF9E16A08291CBF012916
:102ED000814205D0206B122804D100F0E0F901E016
:102EE00000F013F900950022DDF82080434600F041
:102EF0004FFA002849D12069B0F5804F04D12168EC
:102F000006F0FE060E6111E0F009216800F00600EF
:102F100040F0F00008612B464246DFF8D01200F086
:102F200043FA002831D12068F6B206612B4600F042
:102F300039FA002829D10090206800F0BDF9208DD1
:102F4000002827D000F035F8D0B9606A22680178EF
:102F5000116100F027F8208D401E208521684A6904
:102F6000530709D580B238B1606A02780A6100F06F
:102F700019F8208D411E218500F0CDF80028DED003
:102F80007868042801D100F007FA012000E002204F
:102F9000BDE8F28300F0DCF800F0A5F8F8E700697E
:102FA000616A0870606A411C6162608D411E6185C2
:102FB00070472A464146204600F068BA2DE9F0479E
:102FC00082B000F07EF800F0E7F869D100F005F972
:102FD000002865D13878012862D000F078F82346BF
:102FE00030680A9D00F08BF878702A461020B8707F
:102FF000414600207860C6F82490A6F82AA000F088
:1030000055F8304600F05EF9002842D1308D08B9FD
:10301000009004E03168012804D100F0B1F800F01C
:1030200033F918E00228086802D100F0E1F804E062
:1030300040F48060086000210091306800F03CF9A5
:1030400009E000F0A4F8002823D130680169706A13
:10305000017000F0A7F8308D002824D0042815D284
:103060000128EED000F084F808D100F025F80028FF
:103070000FD100F0C8F8716A0870EAE700F01CF898
:10308000002806D100F0D4F818B9F2E700F07FF874
:1030900008B1012005E000F08FF8DCD50069EAE70F
:1030A0000220BDE8F68700F01DF8FAE7708D308544
:1030B000DFF8B001F062704700224146304600F070
:1030C0007BB90646884691469A4600F08FBB01219F
:1030D000397030680168CA0703D4026842F00102FF
:1030E00002607047202078700020B87038707047F8
:1030F000016821F400610160212078707047016847
:1031000021F400610160222070472068026842F4C7
:103110008072026070472A464146204600F0D2B9CC
:10312000608D2085DFF85C01E0627047009519230F
:103130000122DFF87811704700000000A18601002D
:1031400080841E0000093D0040420F000030FFFF58
:103150002068016841F400710160202070472068F8
:103160000168CA0703D4026842F001020260704796
:103170000228DFF83C8100942B467047007CFFFF5B
:10318000086820F4806008600021009170472246A2
:103190002946304600F0C1B906F13C07044678786C
:1031A00020287047706A411C7162308D411E318544
:1031B000708D411E7185704730680169706A0170B9
:1031C000706A411C7162308D411E3185708D411EC7
:1031D0007185306841694A077047009419230122BC
:1031E000DFF8D010304600F0E7B80000080001001A
:1031F00020F4806008603068016841F4006101607B
:103200000020009070473068016841F4007101604F
:1032100030680169706A0170706A411C7162308D9A
:10322000411E3185708D411E718531680869704776
:103230003068016821F4806101602B4630680169C3
:10324000706A01700022706A411C7162308D411EEB
:103250003185708D411E718500944146304600F0E5
:10326000ABB800000000FFFF0090206841690091AA
:10327000826900920022009970479046994600F0BA
:10328000B5BA00000000FFFF306841690091826913
:1032900000920099016841F4007101607047206854
:1032A000016841F480710160704700000200100065
:1032B0000400010002001000416900918069009043
:1032C000009970472DE9F84304460D46E06A2168ED
:1032D00091460A6842F480620A6008281EBF0128ED
:1032E000324988421E4602D1FFF7D9FF07E0206B22
:1032F000112804D12068036843F4807303600096AA
:103300004B4600F044F8002835D12069DFF8A08052
:10331000B0F5804F05D1216845F00105EDB20D6192
:1033200023E0EF09216807F0060747F0F000086185
:1033300033464A461F4900F037F8E0B92068EDB23D
:10334000056133464A46414600F02EF898B9009090
:103350004B46FFF78AFF00F013F8009600F018F8CC
:1033600048B9206847F0F107076133464A464146AD
:1033700000F01AF800B10120BDE8F28300003068C7
:10338000016841F480710160704700965346002245
:103390004FF0011120460FE02068016841F40071F0
:1033A000016070474246024920462EE00000FFFFC0
:1033B00002000100080001002DE9F8430E46089CB8
:1033C00037020546914698463F0E2868012F0CBFEC
:1033D00040698069304080B2B1B288420CBF0120A0
:1033E000002048450ED118F1010FEED000F0FEF993
:1033F000001B804502D3B8F1000FE6D100F07EF843
:10340000012000E00020BDE8F2832DE9F0410E46E6
:1034100037020546144698463F0E2868012F11D101
:103420004169314089B2B2B2914211D041694A0535
:1034300010D500F024F82968486100F08FF841F0B9
:10344000040116E08169314089B2B2B29142EDD1F6
:10345000002012E014F1010FDFD000F0C7F9A0EB5B
:103460000800844201D3002CD7D100F077F841F056
:1034700020014160002202700120BDE8F081026855
:1034800042F4007202606FF48060704770B50546C8
:103490000C46164628684169080611D4284600F0F3
:1034A00067F858B914F1010FF4D000F09FF9801BB0
:1034B000844201D3002CEDD100F020F8012070BD32
:1034C000002070BD70B505460C4616462868416957
:1034D000480711D4284600F04BF858B914F1010FF1
:1034E000F4D000F083F9801B844201D3002CEDD18D
:1034F00000F004F8012070BD002070BD002028639A
:10350000202105F13C0000224170002181704168BA
:1035100041F0200141600270704770B505460C46CD
:103520001646286841694A0616D44169CA0609D474
:1035300000F05CF9801B844201D3002CF1D1FFF72D
:10354000DDFF07E06FF01001416100F007F8416016
:1035500000210170012070BD002070BD0020286393
:10356000202105F13C0041700021817041687047C5
:1035700001684A69530511D56FF480634B610021DE
:1035800001633C302021417000220021817041689C
:1035900041F0040141600270012070470020704733
:1035A00080B5254825490160254941600021816099
:1035B000C1604FF480410161002141618161C161BD
:1035C0000162FFF7C5FB18B1BDE8014000F0FEB98C
:1035D00001BD10B586B0044601A8142100F0F8F929
:1035E0002168164A914224D10020164C00901222E4
:1035F000216841F002012160C021206800F0020032
:10360000009000980191012003900321042004916F
:103610000590029201A90C4800F0DEF9002000900C
:10362000216941F400112161206900F4001000902B
:10363000009806B010BD0000F80B002000540040B8
:10364000A086010030380240000402402DE9F0411C
:1036500004000F4677D0494E306800F00F00B842A2
:1036600002D200F072F86ED12068454D810712D564
:10367000400703D5A86840F4E050A8602178080707
:1036800003D5A86840F46040A860A968A06821F04C
:10369000F0010143A9602078C1074CD5606801287A
:1036A00002D129688A0305E0022818BF032803D144
:1036B00029688A0103D446E02A68910743D5A9689E
:1036C000890840EA8100A86000F090F88046A86868
:1036D000616800F00C00B0EB810F2CD000F086F890
:1036E000A0EB080041F289329042F0D3032020E0A1
:1036F0002078410705D5A968E06821F4E05101432D
:10370000A9602078010706D5A868216920F46040E7
:1037100040EAC100A86000F03DF8AA681949C2F368
:103720000312895C184AC8401060002000F03AFA81
:103730000020BDE8F081306800F00F008742D7D24A
:1037400000F003F8D4D00120F3E73770316801F0BE
:103750000F01B94270470C480C4A006813680C49C5
:10376000C3F3822206E00848084A00681368084943
:10377000C3F34232895CC84070470000003C0240FD
:1037800000380240AC70000864080020083802408D
:10379000C472000818B5124C606800F00C000428D0
:1037A00002D0082802D019E00E4812BD002322687A
:1037B000206841022068C0F388104CBF09490A49BB
:1037C00002F03F02A1FB0001FDF70EFE2168C1F3EC
:1037D0000141491C4900B0FBF1F012BD024812BD85
:1037E0000438024040787D010024F400014840681C
:1037F000704700BF5808002010B500F0F3F900F042
:1038000048F800F009FA00F037FA00F069FA00F021
:10381000DFFA00F0E8FA00F095FB00F09DFBFFF7FF
:10382000BFFE00F0B4FB5A484FF480614FF4D462FD
:10383000016041608260C16000F0C2FC00F0D1FC18
:1038400000F0ECFE00F00CFF00F090FC4FF4806202
:1038500050495148514C01F055F84FF4806250499D
:10386000504801F04FF8002100F010F8042100F05A
:103870000DF8082100F00AF80C2100F007F84A487A
:1038800001F0B5F9494801F0B2F9FEE7204601F030
:10389000E5B900B593B006A8302100F099F801A869
:1038A000142100F095F8002000904148016841F093
:1038B000805101600021006800F080500090009865
:1038C0003C4800910221026842F4804202600122D9
:1038D000006800F4804000900098069110200A9043
:1038E0000C9100200D900821A8200F900E9104202B
:1038F000022111900992109106A801F099FC0F2065
:10390000019002210020029103904FF4A0514FF446
:10391000805004910590052101A8FFF797FE13B090
:1039200000BD00682449884200D0704738B500F0D7
:103930007AFC01F0F7FD01F061FF2049087808B139
:1039400002F087F81E4C207828B100F0EDFE02F05E
:103950009FF8002020701B4C2078C0B11A4D95EDC7
:10396000021AD5ED010A95ED000A02F033F995ED42
:10397000081AD5ED070A95ED060A02F03EFA00F0A6
:1039800095FD00F04BFF02F083F80020207031BD60
:103990006C0C0020380000203C0E00203C0D002064
:1039A000480400207C0E00207C0D0020BC0D00206F
:1039B000403802400070004000100040C60F002058
:1039C000900F0020C80F0020940F002070470000C7
:1039D000002202F059BA00002DE9F84F4FF0000E16
:1039E000654CDFF89881DFF898914FF00F0A024696
:1039F0000B4601211D6801FA0EF10D408D4240F089
:103A0000B2805E68022E18BF122E4FEA8E0012D1CD
:103A10004FEADE0602EB860C00F01C06DCF8207094
:103A20000AFA06FB27EA0B07D3F810B00BFA06F6E2
:103A30003E43CCF820604FEA4E0C0326176893F8FB
:103A400004B006FA0CF6F6430BF0030B37400BFA02
:103A50000CFB4BEA070717605F68012F18BF022FA6
:103A600003D0112F18BF122F12D19768D3F80CB0C2
:103A700037400BFA0CFB4BEA07079760576827EAB9
:103A800001015F68C7F3001707FA0EF73943516069
:103A9000D1680E40996801FA0CF13143D160596840
:103AA000C90060D50026009600F00C00D9F800107F
:103AB00041F48041C9F80010D9F8006006F480464E
:103AC00000960AFA00F600994FEA9E0158F8217014
:103AD000B7432C4EB24208BF002622D02A4EB24233
:103AE00008BF01261DD0294EB24208BF022618D0B9
:103AF000274EB24208BF032613D0264EB24208BF5B
:103B000004260ED0244EB24208BF052609D0234E0B
:103B1000B24208BF062604D0214EB2420CBF07268F
:103B2000082606FA00F0384348F82100E8432168E7
:103B30005E680140F60348BF2943216061685E6802
:103B40000140B60348BF29436160A1685E68014037
:103B5000F60248BF2943A160E1680140586880022D
:103B600048BF2943E1600EF1010EBEF10F0F7FF651
:103B700040AFBDE8F18F0000003C01400838014033
:103B800044380240000002400004024000080240A5
:103B9000000C0240001002400014024000180240D5
:103BA000001C024038B50D4D0D4A297804464FF4EB
:103BB0007A70B0FBF1F11068B0FBF1F002F0C2F9DD
:103BC00050B9102C08D2002221464FF0FF3002F0ED
:103BD00091F9AC60002032BD012032BD58080020B0
:103BE0006408002080B50B48016841F40071016051
:103BF000026842F480620260016841F480710160F1
:103C0000032002F06AF90020FFF7CCFF02F0BAF9B6
:103C1000002002BD003C024081B000200090154809
:103C2000016841F080010160026802F080020092A8
:103C3000002200990092036843F0010303600168C9
:103C400001F00101009100990092036843F0100314
:103C50000360016801F0100100910099009203686F
:103C600043F002030360006800F002000090009837
:103C700001B070473038024080B5002000901748EE
:103C8000016841F480010160026802F48002009240
:103C90000022009900920021036843F4001303609E
:103CA000006800F40010009000980C2002F022F947
:103CB0000C2002F03CF900220021102002F01AF939
:103CC000102002F034F9002200213A2002F012F90B
:103CD000BDE802403A2002F02AB900BF3038024065
:103CE000D0B596B011A81021FFF772FE0FF23C2458
:103CF00002A8D4E90067CDE900671C21FFF768FE40
:103D000009A82021FFF764FE7F4C8048206009202D
:103D100060600020A0604AF20F40E0600020206157
:103D20006061A061204600F055FF08B1FFF74EFE2C
:103D30004FF48050119011A9204601F0C9F808B144
:103D4000FFF744FE204600F07CFF08B1FFF73EFE7F
:103D500000F06CF808B1FFF739FE602000210290F6
:103D6000039104910591069107910891002200F0BA
:103D70002BF808B1FFF72AFE042200F025F808B15D
:103D8000FFF724FE082200F01FF808B1FFF71EFE1F
:103D90000C2200F019F808B1FFF718FE00204FF4CC
:103DA000005109900A900B900C900D900E9110907C
:103DB00009A9204602F021F908B1FFF707FE2046C5
:103DC00000F07BF816B0D0BD02A9204601F00CB877
:103DD0001CB54F4C0FF25C10D0E900234D4800F0A9
:103DE0001EF809200AE01CB54B4C0FF25010D0E928
:103DF00000234A4800F013F842F20F70E060CDE96A
:103E000000230020A061204600F0E4FE08B1FFF787
:103E1000DDFD00F00BF808B1FFF7D8FD13BD206001
:103E200042F2CF0060600020A06070470020009048
:103E300001906946204602F0C1B880B50068334A57
:103E4000374990420BD1002000904A6842F00102AD
:103E50004A60486800F001000090009801BD2D4ABA
:103E6000904211D1002000900A6842F010020A60CE
:103E70000022086800F01000009000210098362011
:103E800002F038F8362013E0244A904214D1002082
:103E900000900A6842F020020A600022086800F0E0
:103EA0002000009000210098372002F023F83720EE
:103EB000BDE8024002F03BB801BD10B586B0044633
:103EC00001A81421FFF784FD2168104A914219D1FD
:103ED0000020009002221348016841F010010160A7
:103EE0004FF4D441006800F0100000900098019158
:103EF00000200390049002920120059001A90A4835
:103F0000FFF76AFD06B010BD3C0D00200000014027
:103F10007C0D002000100040BC0D0020001400406B
:103F200040380240303802400010024000000000DB
:103F30000000000000000000000000000000000081
:103F40000000000080B57C487C4901607C4900F09D
:103F50000EF800B117E001BD80B57A487A490160DA
:103F60004FF4612100F003F800B10CE001BD4160A5
:103F700000218160C16001610C21416100218161EA
:103F8000C16100F083BCBDE80140FFF71FBD80B5F3
:103F90006E486F4901604FF4E131FFF7E8FF00B16F
:103FA000F1E701BD2DE9F04786B0044668461421CB
:103FB000FFF70EFD2268614B664E674867499A42DB
:103FC0004FF480754FF480684FF0006926D10022CD
:103FD00005924B6943F010034B6100234A6902F0DC
:103FE000100200F090F84FF4C06200F095F85C48C1
:103FF0003060C6F804900020B060F060C6F8108011
:104000007061B061F56130627062304602F020F894
:1040100008B1FFF7DBFC6663B46371E04A4BDFF87D
:1040200044A19A4206F184072AD1002205920B6925
:1040300043F400330B6100230A6902F4003200F0FC
:1040400062F80C2200F068F80AF160003066C6F8E9
:1040500064900020B066F066C6F870807067B06744
:10406000F567C6F88000386006F1600001F0F0FFE7
:1040700008B1FFF7ABFC06F1600060637C613FE0D4
:10408000334882423CD1002005900A6942F48022E4
:104090000A610022086900F48020059005980592C5
:1040A00002220B6843F002030B60086800F0020074
:1040B00005904FF440610598009101200290032182
:1040C000072003910490019269462748FFF784FC7A
:1040D000C7F83CA0C7F8409000207864B864C7F8DF
:1040E0004C8038657865BD65F865386606F1C005B1
:1040F000284601F0ADFF08B1FFF768FC65637C67F7
:1041000006B0BDE8F0870592059A059302230A6878
:1041100042F001020A607047096801F0010105914F
:104120000599009201210291032207210491019334
:1041300003926946FFF750BCFC0D002000100140BF
:10414000A08601003C0E0020004400407C0E0020B0
:1041500000480040E00900200000024030380240E2
:1041600040640240286002400004024010B52DED7A
:10417000028B9FED5B8A6424002000F07AF80A200D
:1041800002F018F9002000F089F8012000F071F821
:104190000A2002F00FF9012000F080F800F0A2F8E8
:1041A000B44890ED0A0A641E38EE008AE4D19FED0F
:1041B000BC0A88EE000A80ED090ABDEC028B10BD36
:1041C00080B5AC4812210171021D0221009101232A
:1041D000EC21A948FEF752FEBDE80240032002F0A0
:1041E000E9B8F8B50126A44CA24D6427700040F050
:1041F000A0002871009701232A1DEC212046FEF71C
:104200003DFE009702232A46ED212046FEF7D6FE0A
:104210002878697841EA002105EB4600761C072ED4
:104220000181E3DBF1BD10B59E4CA068616882B0EE
:1042300031B9C0B200F01DF86068401C606013BD69
:104240000A2902DA491C616013BD11D100216160A5
:10425000C0B200F023F8A068012805D100F042F8B0
:1042600001202070002002E0401E8041C00FA060AD
:1042700013BD10B5020082B07F4C7E4908BF4820B4
:1042800002D0012809D1582008710A1D642000902D
:104290000123EC212046FEF7F1FD13BD70B5044665
:1042A000744D754E0020287182B064200090012367
:1042B0002A1DEC213046FEF7E1FD64200090032327
:1042C0002A46ED213046FEF779FE69782878090202
:1042D00041EA0041A878014305EB8400816173BD88
:1042E000000000002DE9F84F624C2DED028BE669CD
:1042F000628AA58AA6EB0226F717A5FB060105FB35
:1043000007114FF400020023FDF74CF8228AA5891B
:1043100000F5FA68A6FB020107FB021100238022C8
:10432000FDF740F84FF0000910EB054549EB010996
:10433000E0893246F3170646A2FB060103FB06118D
:104340004FF4807200236789FDF72CF84FF0000BC3
:1043500010EBC7304BEB0101B8F5FA6F2CDAA8F57A
:10436000FA66764306EB8606771006EBD67206EB06
:1043700097765210B610D317F717DFF800C1E04553
:1043800015DA08F2DC5C08F2DC5808FB0CF8C8EB24
:10439000C80A12EB0A024FF00B0C43EBEA730CFB5A
:1043A00008F808EBD87A16EB6A0647EBEA77AD1AFD
:1043B00069EB0309801BB941A669A0FB062301FB39
:1043C0000633104619464FF400120023FCF7EAFFAB
:1043D000401B61EB09014FF4004200239FED281BB5
:1043E000FCF7E0FFB0EE418AF0EE618A01F0F6FFE3
:1043F00001EE100ADFED241A61EE211A11EE900A87
:1044000002F018F8214A224BFDF7E0FA41EC100BBC
:10441000B0EE481AF0EE681A02F033F853EC102BA5
:1044200000201C49FDF760FA00221B4BFDF754F8F1
:1044300002F03CF8C4F82800BDEC028B94ED0A0AA7
:10444000BDE8F14F0B48D0ED0B0A9FED141A60EE5A
:10445000810A9FED151A40EE010AC0ED0B0AC0ED6E
:10446000080A7047034890ED080AD0ED090A30EEBB
:10447000600A70475C0F0020F80B002024FAFFFF51
:1044800000000020965BC83F0AD7233CCDCCCCCCA3
:10449000CC9C8F400000F03F40A5E5403333333FD4
:1044A0000000C842C80F00209A99993E80B500F0DC
:1044B00005F800F00EF8BDE801404AE010B5634C85
:1044C00001F0C7FC84ED070AFFF7CCFF84ED060A74
:1044D00010BD5E48D0ED010A90ED0D1A90ED070A6F
:1044E00090ED083AB6EE002A21EE022A61EE201A7B
:1044F00022EE012A42EE001A90ED002A71EE821A95
:10450000C0ED001A41EE000AC0ED010A90ED050A67
:10451000D0ED031A90ED042A60EE010A72EE212A12
:1045200072EEA02A02EE813A90ED021A33EE011AE1
:1045300080ED021A30EEA11A70EE820AC0ED040A74
:1045400080ED031AD0ED090A30EE200A80ED050A4D
:10455000704710B53D4C2DED028B94ED028A94ED21
:104560000A0A38EE000AB5EE400AF1EE10FA04D05D
:10457000F7EE000A80EE800A11E010EE100A01F05A
:1045800059FF334A334BFDF76BFB02460B460020C5
:104590003149FDF71BFA01F089FF00EE100A94ED96
:1045A000041A68EE000A21EE000A84ED0C0A94ED6C
:1045B000000A94ED061AC4ED0B0A31EE401A00EE23
:1045C000810A84ED000A94ED0C0AD4ED010A40EE54
:1045D000010AC4ED010AD4ED020A94ED0B0AB0EE13
:1045E000601A00EE601AD4ED030A84ED021AF0EEB0
:1045F000601A40EE601A94ED0C0AD4ED040AC4ED82
:10460000031A40EE410AC4ED040AD4ED050A40EE57
:10461000610AC4ED050ABDEC028B10BD0B480021F8
:1046200001604160B0EE000AC160016180ED020AE4
:1046300080ED050A9FED040A084980ED080A80ED27
:10464000090A8162704700009A99993E0000002093
:10465000F168E388B5F8E43E0000F03F0000A041B7
:104660008648B1EE080A002180ED000A80ED030AB9
:104670008161416280ED010A80ED040AC1618162BD
:1046800080ED020A80ED050A0162C16280ED0C0A2C
:104690004163816370470000794978480A68A2F550
:1046A000B07200EE902AF8EEE00A9FED6E1ABBEEB3
:1046B0000E0A80EE811A71EE000AC0ED130A9FED1A
:1046C000691A4A68A2F5B07200EE902AF8EEE00A84
:1046D00080EE811A31EE000A80ED140ADFED620AE5
:1046E000C968A1F5B07100EE101AB8EEC00AC0EEAC
:1046F000200A9FED5E1A30EE811A80ED151A704780
:104700005F4881685D48A1F5B07100EE101AB8EEFF
:10471000C00ADFED550AC0EE200A9FED541A30EEB4
:10472000811A80ED1C1A704780B5FFF7B5FF534919
:10473000544891ED130A90ED001A91ED192AD0ED2D
:10474000030AC1ED190A30EE410A91ED001A20EE7C
:10475000010A30EEC22ADFED462A30EE601AD1EDB2
:10476000030A91ED093AD1ED161A61EE200AC2EE64
:10477000222A9FED3F0A22EEC32A41EE001A91ED54
:10478000061A91ED0A3AC1ED161A41EE210A91ED91
:10479000141A70EE820A91ED1A2AC1ED0F0ADFEDAC
:1047A000342AD0ED011AD0ED040AC1ED1A0A31EE17
:1047B000611AD1ED011A30EEC22A21EE211AC2EEA1
:1047C000222A31EE601AD1ED040AD1ED171A61EEFA
:1047D000200A22EEC32A41EE001A91ED071AC1ED1C
:1047E000171A41EE210A70EE820AC1ED100AD1EDCE
:1047F000150A90ED051A70EEC10A91ED181A00EE37
:10480000801A91ED050A81ED181A20EE800AD1ED8B
:10481000080A00EE810A81ED110A01BD80B5FFF79B
:104820006FFF194890ED010A1448D0ED1C0A9FED66
:10483000111A40EE410ADFED101A90ED1D1A00EE3C
:10484000A11AD0ED0C1A80ED1D1A60EEA10AD0ED70
:104850000D1A41EE210A90ED0E1A40EE410AC0ED0C
:10486000120A01BD3333B341295C8F40000016C3E7
:104870000AD7233C0000C8428FC2F53C800B0020C1
:104880006C0C0020940F00200000002038B50400BC
:1048900001D1012032BD00F022F808B900F023F860
:1048A00000F013F800F024F8FFE7416100F001F890
:1048B00032BD2068C16841F40051C16000206860C9
:1048C00020206870A870002070472420687020683D
:1048D000C16821F40051C160204600F0B9B804F16C
:1048E000380568787047002129702046FFF75ABBC9
:1048F0002068016921F4904101612068416921F03B
:104900002A01704738B5044604F138051346A878E3
:1049100020283ED109B1180001D1012032BD2878EC
:10492000012836D001222A70A162A3850020686088
:104930002220A870626B0FF26100D063626B0FF2ED
:1049400091001064626B0FF29100D0640020626BE2
:1049500010650A462068011D606B01F0F0FB002025
:10496000009020680168009142680092002200993E
:104970002A70C26842F48072C2602068416941F0C6
:10498000010141612068416941F04001416100201D
:1049900032BD022032BD0000816B00680268D30581
:1049A00013D40020C8850868C26822F48072C260EF
:1049B000086842695208520042610868426922F060
:1049C00040024261202081F83A00084601F0A2BD71
:1049D000806B01F0A0BD000038B5846B2068406991
:1049E00004F139052978212906D1000604D50020D3
:1049F000E084204600F015F8206840696978222993
:104A000006D1400604D50020E085204600F012F8CB
:104A1000E06B40F01000E0632046BDE8324001F05A
:104A20007BBD0168CA6822F0C002CA60202180F8FC
:104A3000391070470168CA6822F49072CA60016830
:104A40004A69520852004A61202180F83A107047A2
:104A50002DE9F0470446642521680A69E06822F4DC
:104A6000405202430A611926CA6848480240A068B9
:104A700002432069024360690243E0690243CA605D
:104A80004A69A06922F4407202434A61E3694048DE
:104A9000404AB3F5004F3BD1914218BF814210D13B
:104AA000FEF761FE0746FEF75EFE8046FEF75BFE00
:104AB0008146FEF758FE06FB09F98246FEF753FED3
:104AC0000FE0FEF748FE0746FEF745FE8046FEF77C
:104AD00042FE8146FEF73FFE06FB09F98246FEF7DD
:104AE0003AFE6168490000F057F8DB003233B3FB4F
:104AF000F5F35B00B2FBF5F203F4F87300F05AF83B
:104B0000ED0032356420B5FBF0F000F0070037E02F
:104B1000914218BF81420ED1FEF725FE0746FEF7EF
:104B200022FE8046FEF71FFE8146FEF71CFE8246EF
:104B3000FEF719FE0DE0FEF70EFE0746FEF70BFE30
:104B40008046FEF708FE8146FEF705FE8246FEF728
:104B500002FE06FB09F96168890000F01DF81B01DF
:104B60003233B3FBF5F3B2FBF5F203F0F00300F0E0
:104B700021F82D0132356420B5FBF0F000F00F0074
:104B80002168C3188B60BDE8F0870000F369FFFF60
:104B900000140140001001407743B7FBF1F206FB1F
:104BA00008F7B7FBF1F3B9FBF1F7B7FBF5F705FB36
:104BB0001733704703EB021306FB0AF74643B7FBB4
:104BC000F1F2B6FBF1F06421B0FBF1F005FB10252A
:104BD0007047000038B5040001D1012032BD00F05B
:104BE00056F818B900F04FF8FFF727F90FE0006802
:104BF000C16841F00101C160816801F00701062927
:104C000003D0016841F001010160002070470220DB
:104C10006870211D206800F0B8F90120687000203C
:104C200032BD03D1416C41F400414164816801F01F
:104C30000701062903D0016841F00101016000204D
:104C400016BD38B5040001D1012032BD00F01FF8B7
:104C500018B900F018F801F060FCD8E710B5044668
:104C600082B000F007F800F009F81CBFDFF8281048
:104C70008842D6E72068012200F0CBBA2068DFF82E
:104C80001C1088427047002129702046704704F1AB
:104C90003C056878704700000004014000000140B6
:104CA00010B50446206801698A0715D5C1688A07CE
:104CB00012D56FF00202026101212177806910F0A4
:104CC000030F204602D001F029FC03E001F027FC8D
:104CD00000F087F800202077206801694A0715D581
:104CE000C1684A0712D56FF00402026102212177E0
:104CF000806910F4407F204602D001F00FFC03E0F1
:104D000001F00DFC00F06DF80020207720680169AB
:104D10000A0715D5C1680A0712D56FF008020261AB
:104D200004212177C06910F0030F204602D001F062
:104D3000F5FB03E001F0F3FB00F053F800202077CF
:104D400020680169CA0615D5C168CA0612D56FF078
:104D50001002026108212177C06910F4407F2046CB
:104D600002D001F0DBFB03E001F0D9FB00F039F8E1
:104D70000020207720680169CA0708D5C168CA07E2
:104D800005D56FF0010202612046FEF7CAFD2068DA
:104D900001690A0608D5C1680A0605D56FF08002C8
:104DA0000261204601F0BCFB206801694A0608D573
:104DB000C1684A0605D56FF040020261204601F045
:104DC000B0FB206801698A060AD5C1688A0607D542
:104DD0006FF0200202612046BDE8104001F0A2BB46
:104DE00010BD204601F09FBB70B500F065F801D101
:104DF000022070BD00F067F832B1042A17D0082AEB
:104E000028D00C2A39D04AE03068294600F008F949
:104E10003068816941F0080100F04AF821F004018E
:104E2000816131688A69286902438A6137E03068A4
:104E3000294600F01EF93068816941F4006100F0F4
:104E400037F821F4806100F033F82A6941EA022141
:104E5000816124E03068294600F03BF93068C1697F
:104E600041F0080100F020F821F00401C16131682F
:104E7000CA6928690243CA6111E03068294600F016
:104E80005AF93068C16941F4006100F00DF821F46D
:104E9000806100F009F82A6941EA0221C16101201C
:104EA00060700020207070BDC1613068C1697047BA
:104EB0008161306881697047064606F13C040D4601
:104EC000207801287047012121700220607070470E
:104ED00038B500F04FF801D1022032BD0122227016
:104EE000022060702A68DFF89402936803409360A0
:104EF0000868020018BF10282DD0202818BF3028BD
:104F000029D0402823D0502816D0602818D07028E7
:104F100003D0B0F5005F07D021E000F026F8286844
:104F2000816841F0770105E000F01FF8286881688A
:104F300041F48041816012E000F013F850210BE051
:104F4000CA684968286800F040F9602104E000F070
:104F500008F8402100E00146286800F048F90FE019
:104F60000000CA684968286820E1CB684A688968F7
:104F7000286844E1054605F13C0420780128704783
:104F8000012060700020207032BDF0B57C4C0568B7
:104F90007C4B7D4E7D4FDFF8F8C1A04218BFB0F1C9
:104FA000804F07D0604518BFB84203D0B04218BF49
:104FB00098420DD14A6825F070051543A04218BFEC
:104FC000B0F1804F17D060451CBFB842B04212D03C
:104FD00098421CBF6F4A90420DD06F4A90421CBF4E
:104FE0006E4A904207D06E4A90421FBF6D4A90426F
:104FF0006D4A904203D1CA6825F4407515434A6949
:1050000025F0800515430560A0428A68C2620A68DF
:10501000826212BF98420969016301214161F0BDBA
:10502000F0B5026A564F574E520852000262036AA8
:105030004468856900F079F823F002031343B8420D
:1050400018BFB04207D1CA6823F008031343B8421F
:1050500023F0040301D0B04205D14A6924F440741E
:1050600014438A691443446085614968416303625B
:10507000F0BDF0B5026A424E22F010020262B04268
:10508000036A446885690A6825F4E64545EA02250D
:105090008A6823F0200343EA02133A4A18BF904279
:1050A00008D1CF6823F0800343EA0713B04223F00E
:1050B000400301D0904206D14E698A6924F44064CD
:1050C000164344EA8604446085614968816303624B
:1050D000F0BDF0B5026A2A4E22F480720262036AC1
:1050E0004468C56900F021F823F4007343EA022301
:1050F000244AB04218BF904208D1CF6823F400631D
:1051000043EA0723B04223F4806301D0904206D1E2
:105110004E698A6924F44054164344EA06144460F4
:10512000C5614968C1630362F0BD0A6825F0730573
:1051300015438A68704770B5026A114E22F4805296
:105140000262B042026A4368C4690D6824F4E6440E
:1051500044EA05248D6822F400521CBF094EB04277
:1051600042EA053204D14D6923F4804343EA8513B2
:105170004360C46149680164026270BD8800FFFF3A
:105180000000014000040140000C00400008004005
:10519000000400400040014000440140004801403C
:1051A00000180040001C00400020004010B5036AB9
:1051B000046A64086400046223F00A03846924F02A
:1051C000F00444EA021484612EE010B5036A23F06F
:1051D000100303628369046A23F4704343EA0233D1
:1051E00024F0A004836144EA0114046210BD8268C3
:1051F00022F07002114341F007018160704710B541
:10520000846824F47F442143114341EA03218160EF
:1052100010BD10B501F01F01036A01248C40A343A7
:10522000036202FA01F1036A1943016210BD000032
:105230002DE9F843040017D02078B64EC10741D5B8
:10524000B06800F00C00042807D0B06800F00C0033
:1052500008280BD17068410208D53168880331D520
:105260006068002840F0B680012050E16068B0F529
:10527000803F06D0B0F5A02F316807D141F48021DE
:105280003160306840F48030306006E021F48031D5
:105290003160326822F480223260606868B1FEF7C3
:1052A000A5FA05463168880300F19480FEF79EFA5E
:1052B000401B6528F6D3032029E1FEF797FA05463F
:1052C0003068810340F18680FEF790FA401B652824
:1052D000F6D3F0E7FEF78AFA401B022840F2A780D7
:1052E000E9E7E06870B101213960FEF77FFA054611
:1052F0003068810700F1CB80FEF778FA401B022866
:10530000F6D9D8E73860FEF771FA054630688107AC
:1053100063D5FEF76BFA401B0228F7D9CBE708608C
:10532000FEF764FA0546706F810775D5FEF75EFAE1
:10533000401B0228F7D9BEE70528306F06D140F0A0
:1053400004003067306F40F0010005E04008400085
:105350003067306F20F00400306741F28938A06870
:1053600068B1FEF743FA8146306F810700F19C80F7
:10537000FEF73CFAA0EB09004045F5D39BE7FEF7AA
:1053800035FA8146306F810740F18E80FEF72EFAA4
:10539000A0EB09004045F5D38DE7FEF727FA401B47
:1053A000022840F2968086E7FEF720FA001B0228CA
:1053B00040F2A8807FE700203866FEF717FA04461F
:1053C0003068810140F1A280FEF710FA001B02282C
:1053D000F6D970E72078504F81071BD5B06810F0E0
:1053E0000C0F09D0B06800F00C0008287FF479AFEA
:1053F000706841023FF575AF3168880703D5E068F2
:1054000001287FF431AF3168206921F0F80141EAC9
:10541000C0013160217808070DD560693F49002837
:105420003FF47DAF01220A60FEF7E0F90546706F98
:1054300081077FF54FAF217848073AD5306C0025BA
:10544000C1000AD400950125306C40F080503064D2
:10545000306C00F0805000900098DFF8C480D8F8DD
:105460000010C8051BD4D8F8000040F48070C8F8BC
:105470000000FEF7BBF98146D8F80010C8050ED42D
:10548000FEF7B4F9A0EB09000228F5D913E730685C
:10549000216920F0F80040EAC1003060BAE7A06856
:1054A00001287FF449AF4DE71DB1306C20F08050EA
:1054B0003064A06950B3B16801F00C0108293FF4D1
:1054C000D3AE02287FF477AF00203866FEF78EF95E
:1054D0000546306881013FF560AFE169206AA26A44
:1054E0000143606A921ED20341EA8011120CE06A05
:1054F00041EA024141EA0061716001213966FEF72B
:1055000075F90446306881017FF54EAF0020BDE893
:10551000F28300BF0038024000004742800E47423D
:105520000070004010B500F008F8AD4C207818B1BC
:1055300000F0B4F80021217010BD2DE9F041A94D13
:10554000A9490A6805F5806482B060685368C3F5AC
:1055500080638342636006D0E26898421BDA90421F
:105560001BDB2068002877D0A668A85DFA2833D115
:10557000701C00F082F8FF282ED1B01C00F07DF8DE
:10558000362829D1571CA9199642DFF8608209DA1A
:105590003222404613E0904201DB9342E1DB0120DE
:1055A0002060E1E7B2420CDAC6F580624046FBF7C4
:1055B000A5FE08F5806076423A4629463044FBF75E
:1055C0009DFE00F04BF8A760313700F047F88449A2
:1055D000E760012008703DE00FF2182000F0A4FF02
:1055E0000120A16841184A1201EB92529212A1EBDC
:1055F0008222AB5CFA2B09D14B1C00F036F8FF2B52
:1056000004D18B1C00F031F8362B0AD0401C302816
:10561000E7DB30281EDBA168401800F036F80AD11D
:105620000DE0A2603132511202EB91518912A2EBCE
:105630008122E260EDE7401C00F027F800D111461E
:10564000A16001F13100411200EB91518912A0EBF0
:105650008120E06000202060BDE8F381781207EB34
:1056600090508012A7EB802770475E1203EB96568E
:10567000B612A3EB8623EB5C7047411200EB91510D
:105680008912A0EB8120285C7047421200EB9252F5
:105690009212A0EB8222AB5CFA2B704780B500F02F
:1056A0008BF8012879D152484179491C41719FED0D
:1056B000491A4E498A7A02704A7A42700A7A82708E
:1056C000CA79C270026882608A7B02704A7B42702B
:1056D0000A7B8270CA7A00F069F880ED030A8A7C3E
:1056E00002704A7C42700A7C8270CA7B00F05EF8CD
:1056F00080ED040A4A7E02700A7E4270CA7D827082
:105700008A7DC270026802624A7F02700A7F42701C
:10571000CA7E82708A7EC27001F1210200F047F8D1
:1057200080ED090A1378037091F820304370CB7F25
:105730008370897FC17000F03AF880ED0A0A9FED0E
:10574000260AD1790170917941705179817011796E
:1057500000F024F8C0ED050A9FED201AD17A0170FF
:10576000917A4170517A8170117A00F017F8C0ED8A
:10577000060AD17B0170917B4170517B8170117B56
:10578000C1700121D0ED000A017120EE800ADFED29
:10579000130A80EE200A80ED070A01BDC170D0ED2A
:1057A000000A60EE800AC0EE810A7047C27090ED78
:1057B000000AB1EE400A7047002101200B4A135C39
:1057C000401CC918322889B2F9DBC8B2401E80419A
:1057D000C00F7047DB0F494000003443DB0F49C066
:1057E000C50F002038000020400A0020F80E0020DD
:1057F0008C0F002061610D0A0000000010B500F060
:1058000008F8964C207B18B100F07FF80021217336
:1058100010BD2DE9F041924C9248026804F5806574
:1058200082B069685368C3F580631A468A426B6028
:1058300051D02868EB68914202DA994204DA01E01B
:10584000994203DB9A4201DA002843D0AE68A05D9A
:10585000022804BFE15C032922D15F1CA1199E42EA
:10586000DFF8F88102DA0A2240460CE0B3420CDA93
:10587000C6F580624046FBF741FD08F58060764240
:105880003A4621463044FBF739FD00F037F8AF6067
:10589000093700F033F8EF60012088F80C0018E0B9
:1058A000012081194A1201EB92529212A1EB82223D
:1058B000A35C022B11D0401C0A28F2DB0A2808D175
:1058C000A8680A3000F013F8A860093000F00FF85B
:1058D000E86000202860BDE8F381AA600932511217
:1058E00002EB91518912A2EB8122EA60E6E74112B4
:1058F00000EB91518912A0EB81207047781207EBE1
:1059000090508012A7EB8027704770B5534EB07847
:105910003038FBF7D7FF0022534BFBF7DDFD0022A9
:105920000023FCF79DF900F0C1FD00F083FD044663
:10593000F07800F08AF800224C4BFBF7CDFD00F028
:1059400080F800F0B3FD00F075FD0446307900F0FA
:105950007CF800F076F800F0A9FD00F06BFD04463D
:10596000B07900F072F8424A424BFBF7B5FD00F007
:1059700068F800F09BFD00F05DFD0446F07900F052
:1059800064F83D4A3D4BFBF7A7FD00F05AF800F0E4
:105990008DFD00F04FFD0446307A00F056F8384A8D
:1059A000384BFBF799FD00F04CF800F07FFD717863
:1059B00000EE100A4129344816D041D3432919D0AA
:1059C00015D345291CD018D347291FD01BD34929EB
:1059D00022D01ED34B2925D021D34D2928D024D322
:1059E0004F292BD027D370BD80ED000A70BD80ED0C
:1059F000030A70BD80ED060A70BD80ED090A70BD16
:105A000080ED010A70BD80ED040A70BD80ED070ACB
:105A100070BD80ED0A0A70BD80ED020A70BD80ED98
:105A2000050A70BD80ED080A70BD80ED0B0A70BDDF
:105A300080ED0C0A70BD80ED0D0A70BD80ED0E0A80
:105A400070BD22462B46FCF70BB90D463038FBF7EC
:105A500039BF0E480C493C22FBF760BCB80F002050
:105A600048040020A00A0020000059400000244003
:105A70009A9999999999B93F7B14AE47E17A843FF5
:105A8000FCA9F1D24D62503FBC0E0020800B0020DB
:105A9000FEB5464991ED030ADFED430AB4EE600A14
:105AA000F1EE10FA4FF4B07201A806D5002120F8EB
:105AB0001120491C0429FADB2CE091ED011AD1EDEB
:105AC000001AD1ED020A31EE812A32EE602A00F08E
:105AD00071F831EE612A32EE202AADF8041000F0A0
