:020000040800F2
:1000000000000220892C0008192900081B2900087B
:100010001D2900081F2900082129000800000000F0
:10002000000000000000000000000000232900087C
:1000300025290008000000002729000829290008B8
:10004000D92C0008D92C0008D92C0008D92C00087C
:10005000D92C0008D92C0008D92C0008D92C00086C
:10006000D92C0008D92C0008D92C0008D92C00085C
:10007000D92C0008D92C0008D92C0008D92C00084C
:100080002D290008D92C0008D92C0008D92C0008EB
:10009000D92C0008D92C0008D92C0008D92C00082C
:1000A000D92C0008D92C0008D92C0008D92C00081C
:1000B000D92C0008D92C0008D92C0008D92C00080C
:1000C000D92C0008D92C0008D92C0008D92C0008FC
:1000D000D92C0008D92C0008D92C0008D92C0008EC
:1000E000D92C0008D92C0008D92C0008D92C0008DC
:1000F000D92C0008D92C0008D92C0008D92C0008CC
:10010000D92C0008D92C0008D92C0008D92C0008BB
:1001100039290008D92C0008452900085129000870
:10012000D92C0008D92C0008D92C0008D92C00089B
:10013000D92C0008D92C0008D92C0008D92C00088B
:10014000D92C0008D92C0008D92C0008D92C00087B
:10015000D92C0008D92C0008D92C0008D92C00086B
:10016000D92C0008D92C0008D92C0008D92C00085B
:10017000D92C0008D92C0008D92C00080000000058
:08018000D92C0008D92C00085D
:1001900010B5054C237833B9044B13B10448AFF3C1
:1001A00000800123237010BD8006002000000000A5
:1001B000C067000808B5034B1BB103490348AFF300
:1001C000008008BD0000000084060020C067000811
:1001D00001F0FF01102A2BDB10F0070F08D010F8F8
:1001E000013B013A8B422DD010F0070F42B3F6D1FC
:1001F000F0B441EA012141EA014122F007047FF015
:1002000000070023F0E80256083C85EA010586EA6B
:10021000010685FA47F5A3FA87F586FA47F6A5FAA7
:1002200087F68EB9EED1F0BC01F0FF0102F00702B3
:1002300032B110F8013B013A83EA010313B1F8D15E
:100240000020704701387047002D06BF354603383F
:10025000073815F0010F07D1013015F4807F02BF78
:10026000013015F4C03F0130F0BC0138704700BFC9
:10027000034613F8012B002AFBD1181A01387047E6
:1002800081F0004102E000BF83F0004330B54FEA47
:1002900041044FEA430594EA050F08BF90EA020FB4
:1002A0001FBF54EA000C55EA020C7FEA645C7FEA47
:1002B000655C00F0E2804FEA5454D4EB5555B8BF6A
:1002C0006D420CDD2C4480EA020281EA030382EADB
:1002D000000083EA010180EA020281EA0303362D6D
:1002E00088BF30BD11F0004F4FEA01314FF4801C40
:1002F0004CEA113102D0404261EB410113F0004F52
:100300004FEA03334CEA133302D0524263EB430308
:1003100094EA050F00F0A780A4F10104D5F1200EA6
:100320000DDB02FA0EFC22FA05F2801841F1000101
:1003300003FA0EF2801843FA05F359410EE0A5F1D5
:1003400020050EF1200E012A03FA0EFC28BF4CF006
:10035000020C43FA05F3C01851EBE37101F00045BC
:1003600007D54FF0000EDCF1000C7EEB00006EEBC9
:100370000101B1F5801F1BD3B1F5001F0CD3490853
:100380005FEA30004FEA3C0C04F101044FEA4452AA
:1003900012F5800F80F09A80BCF1004F08BF5FEA31
:1003A000500C50F1000041EB045141EA050130BD11
:1003B0005FEA4C0C404141EB010111F4801FA4F1B4
:1003C0000104E9D191F0000F04BF01460020B1FA09
:1003D00081F308BF2033A3F10B03B3F120020CDA41
:1003E0000C3208DD02F1140CC2F10C0201FA0CF01F
:1003F00021FA02F10CE002F11402D8BFC2F1200C84
:1004000001FA02F120FA0CFCDCBF41EA0C01904039
:10041000E41AA2BF01EB0451294330BD6FEA040482
:100420001F3C1CDA0C340EDC04F11404C4F120026D
:1004300020FA04F001FA02F340EA030021FA04F37F
:1004400045EA030130BDC4F10C04C4F1200220FAD6
:1004500002F001FA04F340EA0300294630BD21FA14
:1004600004F0294630BD94F0000F83F4801306BFDA
:1004700081F480110134013D4EE77FEA645C18BFCE
:100480007FEA655C29D094EA050F08BF90EA020F65
:1004900005D054EA000C04BF1946104630BD91EA5D
:1004A000030F1EBF0021002030BD5FEA545C05D160
:1004B0004000494128BF41F0004130BD14F580049F
:1004C0003CBF01F5801130BD01F0004545F0FE4113
:1004D00041F470014FF0000030BD7FEA645C1ABF48
:1004E000194610467FEA655C1CBF0B46024650EA7F
:1004F000013406BF52EA033591EA030F41F40021AB
:1005000030BD00BF90F0000F04BF0021704730B530
:100510004FF4806404F132044FF000054FF0000105
:1005200050E700BF90F0000F04BF0021704730B5C6
:100530004FF4806404F1320410F0004548BF40429B
:100540004FF000013EE700BF42004FEAE2014FEAF0
:1005500031014FEA02701FBF12F07F4393F07F4FCB
:1005600081F06051704792F0000F14BF93F07F4FFD
:10057000704730B54FF4607401F0004521F0004140
:1005800020E700BF50EA010208BF704730B54FF0C6
:1005900000050AE050EA010208BF704730B511F0CB
:1005A000004502D5404261EB41014FF4806404F103
:1005B00032045FEA915C3FF4DCAE4FF003025FEA85
:1005C000DC0C18BF03325FEADC0C18BF033202EB0D
:1005D000DC02C2F1200300FA03FC20FA02F001FA67
:1005E00003FE40EA0E0021FA02F11444C1E600BF06
:1005F00070B54FF0FF0C4CF4E06C1CEA11541DBFB9
:100600001CEA135594EA0C0F95EA0C0F00F0DEF883
:100610002C4481EA030621EA4C5123EA4C5350EA68
:10062000013518BF52EA033541F4801143F48013B9
:1006300038D0A0FB02CE4FF00005E1FB02E506F04A
:100640000042E0FB03E54FF00006E1FB03569CF09F
:10065000000F18BF4EF0010EA4F1FF04B6F5007FA5
:1006600064F5407404D25FEA4E0E6D4146EB060617
:1006700042EAC62141EA55514FEAC52040EA5E50A0
:100680004FEACE2EB4F1FD0C88BFBCF5E06F1ED84A
:10069000BEF1004F08BF5FEA500E50F1000041EB81
:1006A000045170BD06F0004646EA010140EA02002E
:1006B00081EA0301B4EB5C04C2BFD4EB0C0541EA50
:1006C000045170BD41F480114FF0000E013C00F365
:1006D000AB8014F1360FDEBF002001F0004170BD89
:1006E000C4F10004203C35DA0C341BDC04F11404A2
:1006F000C4F1200500FA05F320FA04F001FA05F22E
:1007000040EA020001F0004221F0004110EBD370FA
:1007100021FA04F642EB06015EEA430E08BF20EA26
:10072000D37070BDC4F10C04C4F1200500FA04F3C9
:1007300020FA05F001FA04F240EA020001F000415B
:1007400010EBD37041F100015EEA430E08BF20EACE
:10075000D37070BDC4F1200500FA05F24EEA020E16
:1007600020FA04F301FA05F243EA020321FA04F045
:1007700001F0004121FA04F220EA020000EBD370FC
:100780005EEA430E08BF20EAD37070BD94F0000FFC
:100790000FD101F00046400041EB010111F4801F30
:1007A00008BF013CF7D041EA060195F0000F18BFE1
:1007B000704703F00046520043EB030313F4801F1D
:1007C00008BF013DF7D043EA0603704794EA0C0FD7
:1007D0000CEA135518BF95EA0C0F0CD050EA4106ED
:1007E00018BF52EA4306D1D181EA030101F000416A
:1007F0004FF0000070BD50EA410606BF1046194692
:1008000052EA430619D094EA0C0F02D150EA01369D
:1008100013D195EA0C0F05D152EA03361CBF1046DE
:1008200019460AD181EA030101F0004141F0FE417D
:1008300041F470014FF0000070BD41F0FE4141F401
:10084000780170BD70B54FF0FF0C4CF4E06C1CEA01
:1008500011541DBF1CEA135594EA0C0F95EA0C0FB6
:1008600000F0A7F8A4EB050481EA030E52EA033571
:100870004FEA013100F088804FEA03334FF0805592
:1008800045EA131343EA12634FEA022245EA1115BF
:1008900045EA10654FEA00260EF000419D4208BF70
:1008A000964244F1FD0404F5407402D25B084FEA1D
:1008B0003202B61A65EB03055B084FEA32024FF4C9
:1008C00080104FF4002CB6EB020E75EB030E22BF26
:1008D000B61A754640EA0C005B084FEA3202B6EBE6
:1008E000020E75EB030E22BFB61A754640EA5C0095
:1008F0005B084FEA3202B6EB020E75EB030E22BF25
:10090000B61A754640EA9C005B084FEA3202B6EB25
:10091000020E75EB030E22BFB61A754640EADC00E4
:1009200055EA060E18D04FEA051545EA16754FEA46
:1009300006164FEAC30343EA52734FEAC2025FEA64
:100940001C1CC0D111F4801F0BD141EA00014FF0F3
:1009500000004FF0004CB6E711F4801F04BF0143C4
:100960000020B4F1FD0C88BFBCF5E06F3FF6AFAEE0
:10097000B5EB030C04BFB6EB020C5FEA500C50F170
:10098000000041EB045170BD0EF0004E4EEA1131F3
:1009900014EB5C04C2BFD4EB0C0541EA045170BDFA
:1009A00041F480114FF0000E013C90E645EA060E3E
:1009B0008DE60CEA135594EA0C0F08BF95EA0C0F6C
:1009C0003FF43BAF94EA0C0F0AD150EA01347FF4B4
:1009D00034AF95EA0C0F7FF425AF104619462CE78B
:1009E00095EA0C0F06D152EA03353FF4FDAE1046EE
:1009F000194622E750EA410618BF52EA43067FF43F
:100A0000C5AE50EA41047FF40DAF52EA43057FF4CE
:100A1000EBAE12E74FF0FF3C06E000BF4FF0010CD9
:100A200002E000BF4FF0010C4DF804CD4FEA410C3D
:100A30007FEA6C5C4FEA430C18BF7FEA6C5C1BD00A
:100A400001B050EA410C0CBF52EA430C91EA030F8B
:100A500002BF90EA020F0020704710F1000F91EAE8
:100A6000030F58BF994208BF90422CBFD8176FEAB6
:100A7000E37040F0010070474FEA410C7FEA6C5C84
:100A800002D150EA013C07D14FEA430C7FEA6C5C8B
:100A9000D6D152EA033CD3D05DF8040B704700BFB7
:100AA0008446104662468C461946634600E000BF05
:100AB00001B5FFF7B7FF002848BF10F1000F01BDD7
:100AC0004DF808EDFFF7F4FF0CBF012000205DF8A2
:100AD00008FB00BF4DF808EDFFF7EAFF34BF012027
:100AE00000205DF808FB00BF4DF808EDFFF7E0FFC0
:100AF00094BF012000205DF808FB00BF4DF808ED11
:100B0000FFF7CEFF94BF012000205DF808FB00BF77
:100B10004DF808EDFFF7C4FF34BF012000205DF859
:100B200008FB00BF4FEA410C7FEA6C5C02D150EA3F
:100B3000013C0AD14FEA430C7FEA6C5C02D152EAD5
:100B4000033C02D14FF0000070474FF001007047A6
:100B50004FEA410212F5001215D211D56FF47873E5
:100B6000B3EB625212D94FEAC12343F0004343EA88
:100B7000505311F0004F23FA02F018BF4042704763
:100B80004FF00000704750EA013005D111F00040ED
:100B900008BF6FF0004070474FF00000704700BF83
:100BA0004FEA4102B2F1E04324BFB3F5001CDCF18F
:100BB000FE5C0DD901F0004C4FEAC0024CEA5070C7
:100BC000B2F1004F40EB830008BF20F001007047F6
:100BD00011F0804F21D113F13872BCBF01F00040F9
:100BE000704741F480114FEA5252C2F11802C2F12B
:100BF000200C10FA0CF320FA02F018BF40F00100AC
:100C00004FEAC1234FEAD32303FA0CFC40EA0C005D
:100C100023FA02F34FEA4303CCE77FEA625307D19A
:100C200050EA01331EBF4FF0FE4040F440007047D1
:100C300001F0004040F0FE4040F40000704700BF6B
:100C400053B94AB9002908BF00281CBF4FF0FF3133
:100C50004FF0FF3000F07AB9ADF1080C6DE904CE29
:100C600000F006F8DDF804E0DDE9022304B0704787
:100C70002DE9F0478C460D460446089E002B51D1C5
:100C80008A4217466DD9B2FA82FEBEF1000F0BD030
:100C9000CEF1200C01FA0EF520FA0CFC02FA0EF748
:100CA0004CEA050C00FA0EF44FEA174A250CBCFB7F
:100CB000FAF81FFA87F90AFB18CC45EA0C4508FB3D
:100CC00009F3AB420AD9ED1908F1FF3280F0238114
:100CD000AB4240F22081A8F102083D44ED1AA4B2D3
:100CE000B5FBFAF00AFB105544EA054400FB09F98C
:100CF000A14509D9E41900F1FF3380F00A81A1452B
:100D000040F2078102383C44A4EB090440EA084061
:100D10000021002E61D024FA0EF4002334607360A9
:100D2000BDE8F0878B4207D9002E54D0002186E819
:100D300021000846BDE8F087B3FA83F1002940F0AE
:100D40008E80AB4202D3824200F2FA80841A65EBB5
:100D500003050120AC46002E3FD086E81010BDE808
:100D6000F08712B90127B7FBF2F7B7FA87FEBEF199
:100D7000000F34D1EB1B3A0C1FFA87FC0121B3FBA7
:100D8000F2F8250C02FB183345EA03450CFB08F387
:100D9000AB4207D9ED1908F1FF3002D2AB4200F2A5
:100DA000D1808046ED1AA3B2B5FBF2F002FB1055DC
:100DB00043EA05440CFB00FCA44507D9E41900F103
:100DC000FF3302D2A44500F2B8801846A4EB0C040D
:100DD00040EA08409DE731463046BDE8F087CEF155
:100DE000200405FA0EF307FA0EF720FA04F83A0C7D
:100DF00025FA04F448EA0308B4FBF2F14FEA184577
:100E000002FB11441FFA87FC45EA044501FB0CF381
:100E1000AB4200FA0EF409D9ED1901F1FF3080F070
:100E20008A80AB4240F2878002393D44EB1A1FFAB8
:100E300088F5B3FBF2F002FB103345EA034500FBF3
:100E40000CF3AB4207D9ED1900F1FF386FD2AB427A
:100E50006DD902383D44EB1A40EA01418FE7C1F1F8
:100E6000200722FA07F88B4005FA01F448EA030349
:100E700020FA07FE4FEA134CFD404EEA040EB5FB84
:100E8000FCF94FEA1E440CFB19551FFA83F844EA9B
:100E9000054509FB08F4AC4202FA01F200FA01FA36
:100EA00008D9ED1809F1FF3043D2AC4241D9A9F17C
:100EB00002091D442D1B1FFA8EFEB5FBFCF00CFB36
:100EC00010554EEA054400FB08F8A04507D9E41880
:100ED00000F1FF3529D2A04527D902381C4440EA49
:100EE0000940A4EB0804A0FB02894C45C6464D46C8
:100EF00015D312D056B1BAEB0E0364EB050404FA15
:100F000007F7CB401F43CC40376074600021BDE839
:100F1000F0871846F8E69046E0E6C245EAD2B8EB1C
:100F2000020E69EB03050138E4E72846D7E740469F
:100F300091E78146BEE7014678E702383C4445E741
:100F4000084608E7A8F102083D442BE7704700BFB8
:100F500038B50E4A0E4B054618784FF47A73B3FB3A
:100F6000F0F31068B0FBF3F000F096F8044658B9BF
:100F70000F2D09D8024629464FF0FF3000F04AF8FD
:100F8000044B20461D6038BD012038BD0C000020F8
:100F9000000000200400002008B50B4B1A6842F442
:100FA00000721A601A6842F480621A601A6842F489
:100FB00080721A60032000F01BF80020FFF7C8FFC2
:100FC00001F08EFC002008BD003C0240034A044BA7
:100FD00011681B780B441360704700BFE4060020C3
:100FE00000000020014B1868704700BFE406002095
:100FF000074AD36823F4E0631B041B0C43F0BF6370
:10100000000243F4003300F4E0600343D360704710
:1010100000ED00E0174B30B5DC68C4F30224C4F1E6
:101020000703251D042B28BF0423062D4FF00105BF
:1010300005FA03F303F1FF338CBF033C002419408E
:10104000A14005FA04F4013C2240002842EA0102D2
:101050004FEA0212ADBF00F1604000F00F00064BF6
:1010600000F56140B5BFD2B2D2B21A5480F8002365
:1010700030BD00BF00ED00E014ED00E0002808DB0B
:101080004209012300F01F0003FA00F0014B43F86E
:101090002200704700E100E00138B0F1807F0AD201
:1010A000064B074A5860F02182F8231000200722DF
:1010B00098601A6070470120704700BF10E000E0A0
:1010C00000ED00E00368DAB223F47F7323F003033A
:1010D0001821103AB2FBF1F20449032A88BF043305
:1010E000895C8365C165806D704700BFD867000863
:1010F00070B50446FFF776FF0546002C71D000233B
:1011000084F834302268022384F83530136823F0E1
:101110000103136021680B68D8073CD40B68324D7B
:101120006268A0691D40A3681343E2681343226903
:10113000134362691343E26903431343226A13436F
:10114000626A042A43EA050301BF266BE56A354358
:101150002B430B604B69042A23F0070343EA020385
:101160000BD1A26AE56A13433DB1F8B9012A2DD02B
:1011700001D3022A01D1EA012BD44B612046FFF7AB
:10118000A1FFE26D3F23934083600020012360654F
:1011900084F8353070BDFFF725FF401B0528B9D90D
:1011A00020236365032084F8350070BDB0F5005F2F
:1011B00013D1032AE1D801A050F822F0D31100087E
:1011C00077110008D3110008CD110008B5F1C07FD8
:1011D000D3D1402363650120E5E7022AF9D9032A28
:1011E000C8E7012070BD00BF3F8010F070B590F8D7
:1011F0003440012C36D0012480F8344090F835403A
:10120000866D012C4FF000054FF0020428D180F8C4
:10121000354004684565256825F4802525606360B0
:101220008368402B0EBFA260A160E260C26D08BF60
:10123000E1603F239340B360236843F016032360CB
:10124000636943F080036361036C1BB1236843F05F
:1012500008032360236843F001032360002070BD6E
:1012600080F83450022070BD90F83530022B03D046
:1012700080234365012070470268052380F83530DC
:10128000136823F00103136000207047F7B50023B3
:1012900001935A4B856D1F68C36D2E6808229A40D2
:1012A000164204460CD001680868400708D5086853
:1012B00020F004000860AA60626D42F001026265DD
:1012C00001229A40164208D021684969090641BFA7
:1012D000AA60626D42F00202626504229A401642E0
:1012E00008D021680968880741BFAA60626D42F092
:1012F0000402626510229A40164210D023681968D1
:1013000009070CD5AA601A68500335D51B68190364
:1013100001D4236C00E0A36C0BB120469847E16D2B
:1013200020228A40164238D023681868C60634D571
:10133000AA6094F83520052A1A6825D122F01602F1
:101340001A605A6922F080025A61226C0AB9A26CB2
:101350001AB11A6822F008021A603F238B40AB6072
:10136000002384F83430012384F83530236D0BB129
:101370002046984703B0F0BD1A68D2055EBF1A68D0
:1013800022F008021A60C4E7500328D51B6819032D
:1013900032D4636C0BB120469847636D002BE9D0C3
:1013A000636DDA0719D50523226884F83530136890
:1013B00023F0010313604FF41653B7FBF3F7019BBF
:1013C00001339F42019302D31368DB07F7D4002354
:1013D00084F83430012384F83530E36CC7E71A68A9
:1013E00012F4807208D1196821F0100119600123EC
:1013F00084F8342084F83530E36BCBE70C00002010
:101400002DE9F04F85B00B68DFF8AC81684ADFF852
:10141000AC91019300234FF0010E019C0EFA03FEE4
:101420000EEA0406B64540F0AE804C6824F0100782
:10143000022F16D14FEAD30A00EB8A0A03F0070BFA
:10144000DAF820504FEA8B0B4FF00F0C0CFA0BFC24
:1014500025EA0C0C0D6905FA0BF545EA0C05CAF8EE
:1014600020504FEA430A0325D0F800B005FA0AF5E8
:10147000ED4304F0030C0BEA050B0CFA0AFC013FE8
:101480004CEA0B0C012FC0F800C011D8876807EA9E
:10149000050BCF6807FA0AFC4CEA0B078760476820
:1014A00027EA0E0EC4F300179F4047EA0E07476075
:1014B000C7683D408F6807FA0AF73D43C560E500FD
:1014C00061D54FF0000BCDF80CB0D8F84470394D11
:1014D00047F48047C8F84470D8F8447007F4804750
:1014E0000397039F23F0030707F1804707F59C3715
:1014F00003F0030CD7F808A04FEA8C0C4FF00F0E46
:101500000EFA0CFEA8422AEA0E0E43D005F58065BD
:10151000A84241D005F58065A8423FD005F5806519
:10152000A8423DD005F58065A8423BD048453BD058
:1015300005F50065A84239D005F58065A84214BFBD
:101540000825072505FA0CF545EA0E05BD60156866
:10155000F74314F4803F0CBF3D4035431560556898
:1015600014F4003F0CBF3D4035435560956814F4BA
:10157000801F0CBF3D4035439560D568A40254BF21
:101580003D403543D5600133102B7FF444AF05B0A7
:10159000BDE8F08F5D46D5E70125D3E70225D1E709
:1015A0000325CFE70425CDE70525CBE70625C9E7C9
:1015B000003C01400000024000380240001402409C
:1015C0002DE9F341044618B9012002B0BDE8F081CD
:1015D0000368DD0710D42368980758D423681A07D6
:1015E00000F19A8023685B0700F1B880A269002AA5
:1015F00040F019810020E8E7A64B9A6802F00C023F
:10160000042A07D09A6802F00C02082A0AD15B6803
:10161000590207D59F4B1B689A03DCD56368002BE2
:10162000D9D1D1E763689B4DB3F5803F11D12B68C9
:1016300043F480332B60FFF7D5FC964D06462B68AC
:101640009B03C8D4FFF7CEFC801B6428F7D9032086
:10165000BBE7B3F5A02F04D12B6843F480232B60A4
:10166000E5E72A6822F480322A602A6822F4802280
:101670002A60002BDFD1FFF7B5FC06462B689F03DD
:10168000A9D5FFF7AFFC801B6428F7D9DFE7814BB2
:101690009A6812F00C0F07D09A6802F00C02082A20
:1016A00011D15B685E020ED47A4B1A68950702D599
:1016B000E268012A88D11A68216922F0F80242EA18
:1016C000C1021A608AE7E268734BB2B101221A6064
:1016D000FFF788FC6F4D06462B68980707D52B68E7
:1016E000226923F0F80343EAC2032B6076E7FFF791
:1016F00079FC801B0228EFD9A9E71A60FFF772FC7A
:10170000644D06462B6899077FF568AFFFF76AFCC2
:10171000801B0228F6D99AE76269604B7AB10122F0
:101720001A60FFF75FFC5B4D06466B6F9F073FF546
:1017300059AFFFF757FC801B0228F6D987E71A60DC
:10174000FFF750FC534D06466B6F98077FF54AAF85
:10175000FFF748FC801B0228F6D978E74D4B1A6C3E
:1017600012F0805228D101921A6C42F080521A6411
:101770001B6C03F080530193019B0126484D2B689D
:10178000D9051BD5A368434D012B27D12B6F43F0FF
:1017900001032B67FFF726FC3E4D074641F28838D0
:1017A0002B6F9B0739D5002E3FF420AF394A136CBD
:1017B00023F08053136419E70026DFE72B6843F416
:1017C00080732B60FFF70EFC07462B68DA05D9D42F
:1017D000FFF708FCC01B0228F7D938E7052B04D116
:1017E0002B6F43F004032B67D0E72A6F22F001022E
:1017F0002A672A6F22F004022A67002BCAD1FFF75A
:10180000F1FB41F2883807462B6F9807CBD5FFF7DD
:10181000E9FBC01B4045F7D919E7FFF7E3FBC01B05
:101820004045BDD913E71B4DAB6803F00C03082BF3
:101830003FF4CAAE1B4E0023022A336034D1FFF7B7
:10184000D1FB07462B6899011ED4226AE369134332
:10185000626A43EA8213E26A43EA0263A26A0D4CB7
:101860005208013A43EA02436B6001233360FFF7F9
:10187000B9FB054623689A013FF5BCAEFFF7B2FB02
:10188000401B0228F6D9E2E6FFF7ACFBC01B02289A
:10189000D8D9DCE60038024000004742800E4742BB
:1018A0000070004060004742FFF79CFB04462B6835
:1018B0009B017FF59FAEFFF795FB001B0228F6D931
:1018C000C5E600BF134908B58B6803F00C03042B71
:1018D00003D0082B03D0104808BD104808BD4A6843
:1018E0004B68496813F4800314BF0C480A48C1F3DD
:1018F000881118BF002302F03F02A1FB0001FFF78F
:101900009FF9044B5B68C3F3014301335B00B0FBF9
:10191000F3F008BD003802400024F40040787D0157
:101920002DE9F0410D46044610B90120BDE8F081D3
:10193000444B1A6802F00F028A4228D321688F07AD
:101940002DD4C80740D43F4B1A6802F00F029542CD
:1019500066D3226851076CD4130707D53A4A216928
:10196000936823F4604343EAC1039360FFF7AAFF3F
:10197000354B364A9B68C3F30313D35CD840344BD2
:1019800018600020FFF7E4FA0020BDE8F081CAB239
:101990001A701B6803F00F039942C6D1CEE72A4B99
:1019A00011F0040F1EBF9A6842F4E0529A600E07CD
:1019B00042BF9A6842F460429A609A68A06822F036
:1019C000F00202439A60BCE762681F4B012A1DD1F6
:1019D0001B6813F4003FA8D01B4EB36823F0030329
:1019E0001343B360FFF7FEFA41F288380746B36845
:1019F000626803F00C03B3EB820FA4D0FFF7F2FA96
:101A0000C01B4045F3D90320BDE8F081911E012998
:101A10001B6802D813F0007FDDE713F0020FDAE74E
:101A2000EAB21A701B6803F00F039D427FF47DAF8A
:101A30008FE70549E0688B6823F4E05303438B602C
:101A40008AE700BF003C024000380240EC67000813
:101A50000C000020044B054A9B68C3F38223D35C2F
:101A6000034A1068D840704700380240FC670008FD
:101A70000C000020044B054A9B68C3F34233D35C3F
:101A8000034A1068D840704700380240FC670008DD
:101A90000C0000200368DA6842F00102DA609A68FC
:101AA00002F00702062A1EBF1A6842F001021A60FD
:101AB00000207047704770477047704703681A6985
:101AC000910710B504460ED5DA6892070BD56FF072
:101AD00002021A619B6901229B07027777D0FFF708
:101AE000EAFF0023237723681A69500710D5DA68C4
:101AF00051070DD56FF004021A619B69022213F49D
:101B0000407F2277204668D0FFF7D5FF0023237758
:101B100023681A6912070FD5DA6810070CD56FF021
:101B200008021A61DB6904229907227720465AD0FD
:101B3000FFF7C1FF0023237723681A69D20610D567
:101B4000DA68D0060DD56FF010021A61DB69082241
:101B500013F4407F227720464BD0FFF7ACFF0023E1
:101B6000237723681A69D10708D5DA68D20705D523
:101B70006FF001021A61204600F0F2FC23681A6936
:101B8000100608D5DA68110605D56FF080021A61D3
:101B9000204600F0D4F823681A69520608D5DA689E
:101BA000500605D56FF040021A612046FFF785FF09
:101BB00023681A69910622D5DA6892061FD56FF05C
:101BC000200220461A61BDE8104000F0B7B8FFF7C8
:101BD00071FF2046FFF770FF83E7FFF76BFF20469A
:101BE000FFF76AFF92E7FFF765FF2046FFF764FF04
:101BF000A0E7FFF75FFF2046FFF75EFFAFE710BDEE
:101C0000304A0368904212D0B0F1804F0FD0A2F555
:101C10007C4290420BD002F58062904207D002F5E0
:101C20008062904203D002F57842904219D14A680E
:101C300023F070031343234A904229D0B0F1804F20
:101C400026D0A2F57C42904222D002F580629042DA
:101C50001ED002F5806290421AD002F5784290427E
:101C600016D0194A904213D002F5806290420FD0EC
:101C700002F5806290420BD0A2F59832904207D0D4
:101C800002F58062904203D002F58062904203D157
:101C9000CA6823F4407313434A6923F08003134353
:101CA00003608B68C3620B688362064B984203D063
:101CB00003F58063984201D10B69036301234361FB
:101CC000704700BF000001400040014010B50446CD
:101CD000A0B190F83D3003F0FF021BB980F83C2022
:101CE00000F0DCFE022384F83D302068211DFFF760
:101CF00087FF012384F83D30002010BD012010BD76
:101D000090F83C30012B30B54FF0020314D004683A
:101D100080F83D306268A3680D68496822F070025F
:101D200023F080030B432A436260A360012380F801
:101D30003D30002380F83C30184630BD7047704776
:101D40000368DA6822F49072DA605A6922F00102BC
:101D50005A61202380F83A30704700002DE9F0479F
:101D60000668C2683369C16923F440531343336181
:101D7000044683680069F2680343606922F41642EE
:101D8000034322F00C020B431343F3607369A2690F
:101D900023F440731343B1F5004F73617A4B7CD148
:101DA0009E4203D003F580639E4244D1FFF762FE5A
:101DB000192505FB00F360684FF064094000B3FB90
:101DC000F0F3B3FBF9F34FEA0318FFF753FE636830
:101DD00068435B00B0FBF3F7FFF74CFE63686843B2
:101DE0005B00B0FBF3F3B3FBF9F309FB1373DB0008
:101DF0003233B3FBF9F35B0003F4F877FFF73AFEF5
:101E0000626868435200B0FBF2FAFFF733FE636882
:101E100068435B00B0FBF3F3B3FBF9F309FB13A3D7
:101E2000DB003233B3FBF9F303F0070343443B44D5
:101E3000B360BDE8F087FFF70DFE192505FB00F341
:101E400060684FF064094000B3FBF0F3B3FBF9F3B3
:101E50004FEA0318FFF7FEFD636868435B00B0FBC1
:101E6000F3F7FFF7F7FD636868435B00B0FBF3F33C
:101E7000B3FBF9F309FB1373DB003233B3FBF9F364
:101E80005B0003F4F877FFF7E5FD626868435200F2
:101E9000B0FBF2FAFFF7DEFDB9E79E4202D03B4B02
:101EA0009E4240D1FFF7E6FD676819254FF06409AF
:101EB00005FB00F3BF00B3FBF7F3B3FBF9F31F011E
:101EC000FFF7D8FD636868439B00B0FBF3F8FFF7AA
:101ED000D1FD636868439B00B0FBF3F3B3FBF9F3F8
:101EE00009FB13831B013233B3FBF9F303F0F00852
:101EF000FFF7C0FD626868439200B0FBF2FAFFF79B
:101F0000B9FD636868439B00B0FBF3F3B3FBF9F3DF
:101F100009FB13A31B013233B3FBF9F303F00F03E7
:101F200043EA080383E7FFF795FD676819254FF03B
:101F3000640905FB00F3BF00B3FBF7F3B3FBF9F350
:101F40001F01FFF787FD636868439B00B0FBF3F850
:101F5000FFF780FD636868439B00B0FBF3F3B3FBBE
:101F6000F9F309FB13831B013233B3FBF9F303F0DD
:101F7000F008FFF76FFD626868439200B0FBF2FA69
:101F8000FFF768FDBDE700BF0010014000140140ED
:101F9000F8B504460E4617461D4621680B6836EA1A
:101FA000030301D10020F8BD6B1CF7D095B923685D
:101FB000DA6822F4D072DA605A6922F001025A61BA
:101FC000202384F8393084F83A30002384F83830FC
:101FD0000320F8BDFFF706F8C01B8542DDD2E6E717
:101FE00010B5044640B390F8393003F0FF021BB936
:101FF00080F8382000F0C0FD2268242384F83930AE
:10200000D36823F40053D3602046FFF7A7FE23686C
:102010001A6922F490421A615A6922F02A025A611E
:10202000DA6842F40052DA6000202023E06384F88A
:10203000393084F83A3010BD012010BD2DE9F0414F
:102040001F4690F83930202B04460D4690464FD15C
:1020500000294AD0002A48D090F83830012B47D0C8
:10206000012380F838300023C363212380F83930FE
:10207000FEF7B8FFA4F824800646A4F82680E38C77
:102080009BB26BB93B46324640212046FFF780FFAA
:10209000B0B9202384F8393084F83800BDE8F081E5
:1020A000E38C013B9BB2E384A368B3F5805F3246C7
:1020B0003B464FF0800120460ED1FFF769FF10B17B
:1020C0000320BDE8F0812B882268C3F30803536026
:1020D000236943B90235D2E7FFF75AFF0028EFD151
:1020E00023682A785A600135C9E70120BDE8F081EC
:1020F0000220BDE8F0810000134690F83A20202A23
:1021000073B5054638D1002934D0002B32D090F871
:102110003820012A30D00122002480F838202222E1
:10212000C4638162838580F83A20406B134AC2639E
:102130002E68134A0264134AC26404650A46311DBC
:10214000FFF754F82B6801941A6801925A680192BB
:10215000019ADA6885F8384042F48072DA605A6988
:1021600042F001025A615A6942F040025A61204627
:1021700002B070BD0120FBE70220F9E78D210008C5
:10218000432200084F2200087047704708B50368D3
:10219000826B1B6813F4807310D1D3851368D968E0
:1021A00021F48071D960596921F00101596159699F
:1021B00021F040015961202382F83A301046FFF7A0
:1021C000E4FF08BD90F83A30222B10B536D1836871
:1021D00001690268B3F5805F836A23D15268E9B967
:1021E000C2F3080223F8022B8362C48D013CA4B21F
:1021F000C4858CB90368DA6822F02002DA60DA68F4
:1022000022F48072DA605A6922F001025A612023B6
:1022100080F83A30FFF7B9FF002010BDD2B223F8A2
:10222000012BE1E721B9591C526881621A70DCE781
:102230005268591C816202F07F02F7E7022010BD4C
:10224000704708B5806BFFF7FBFF08BD7047816BD7
:1022500008B50B685A6991F8390021280AD112068D
:1022600008D50022CA84DA6822F0C002DA6020228F
:1022700081F839205B6991F83A20222A06D15B0661
:1022800004D50023CB850846FFF75AFDCB6B43F0FE
:102290001003CB630846FFF7D9FF08BD03681A682F
:1022A000D96870B5160704465D6907D196065AD5F8
:1022B0008D0658D5BDE87040FFF784BF15F00105C5
:1022C00002D111F4907F4ED0D30705D5CE0542BF81
:1022D000E36B43F00103E363500704D51DB1E36BE7
:1022E00043F00203E363930704D51DB1E36B43F0AE
:1022F0000403E363160704D51DB1E36B43F0080341
:10230000E363E36B002B66D0950604D5880602D5FF
:102310002046FFF757FF23685D69E26B11072046EF
:1023200002D415F040051AD0FFF70AFD23685A6958
:10233000520610D55A69606B22F040025A6150B1C2
:10234000254B0365FEF790FF002844D0606BBDE885
:102350007040036D18472046FFF778FF70BDFFF708
:1023600075FFE56370BD160627D50D0625D594F8D3
:102370003920212A2FD1A268B2F5805F226A17D1B5
:102380001188C1F308015960216979B902322262CA
:10239000E28C013A92B2E284EAB9DA6822F0800271
:1023A000DA60DA6842F04002DA6070BD0132EEE7CE
:1023B000511C216212785A60EAE750060BD54A0692
:1023C00009D5DA6822F04002DA60202384F8393037
:1023D0002046FFF7D9FE70BDDD23000808B5806BED
:1023E0000023C385C384FFF731FF08BD07B50B4B3E
:1023F00000220192196B41F4001119631B6B03F465
:102400000013019311461020019BFEF703FE1020DC
:10241000FEF734FE03B05DF804FB00BF0038024055
:1024200082B00C4B002100911A6B42F080021A63BB
:102430001A6B02F080020092009A01911A6B42F02E
:1024400001021A631B6B03F001030193019B02B0AD
:10245000704700BF00380240F8B5084F0E461546D9
:102460000024AC4201DB2846F8BD31194FF6FF735A
:1024700001223846FFF7E2FD0134F2E7080C0020A4
:1024800030B595B03022002108A800F05CFC002196
:10249000142203A800F057FC00241C4B01941A6C72
:1024A00042F080521A641B6C03F080530193019B2D
:1024B000174B02941A6842F480421A601B680F940A
:1024C00003F480430293029B01230B9310230C938C
:1024D00008231093A8230225119308A8042313931B
:1024E00008950E951295FFF76BF80F2303934FF4A1
:1024F000A053069305214FF4805303A80495059437
:102500000793FFF70DFA15B030BD00BF0038024049
:102510000070004008B5FEF73FFDFFF7B1FFFFF781
:102520007FFFFFF763FF00F073FA00F009FB00F094
:10253000EBFA00F08FFA4FF4806205490548FFF787
:10254000DBFD0548FFF7A6FA0448FFF7A3FAFEE70C
:1025500027070020480C0020280B0020680B0020D3
:102560000268124B9A4210B51FD100F0ABF9104B24
:102570001B78D3B10F4C2068FDF7E6FF02460B46EF
:102580000D4800F0E9FB6068FDF7DEFF02460B46F0
:10259000094800F0E1FBA068FDF7D6FFBDE8104058
:1025A00002460B46054800F0D7BB10BD00100040A6
:1025B000A0060020EC060020E0670008E5670008A0
:1025C000704700002DE9F843654B66491B680A68AF
:1025D0005B68C3F580639A420B605ADA6249096806
:1025E0008A4204DA8B4202DB604B01221A605F4CA4
:1025F0002368002B00F0B2805D4DDFF880812968F0
:1026000018F80130FA2B404601F1010356D15E4221
:10261000C6F30906C3F3090258BF724218F8022034
:10262000FF2A4BD18A1C5642C6F30906C2F309029F
:1026300058BF724218F80220362A3FD14A4E3768F6
:10264000B9422CDA41444B4B01F1200251F8040B02
:1026500043F8040B9142F9D10A881A808A789A705B
:102660007B1C5A42C2F30902C3F3090358BF534209
:102670002B6022335A42C2F30902C3F3090358BF45
:10268000534233603C4B01221A7000232360BDE8A3
:10269000F88363DD344909688A42A5DBA2E7DFDD00
:1026A000344BC1F580694A464144184600F040FB6E
:1026B0007A1C4146484400F03BFBD1E701F1210779
:1026C0005A42C2F30902C3F3090658BF564203F146
:1026D000010E825DFA2A23D1DEF1000CCCF3090C45
:1026E000CEF3090258BFCCF10002825CFF2A17D159
:1026F0009A1C5342C3F30903C2F3090258BF5A425A
:10270000835C362B0CD12E6006F122035A42C2F3B1
:102710000902C3F3090358BF5342134A1360B4E7D5
:1027200077457346CCD17A42C2F30902C7F3090751
:1027300058BF5742C25DFA2A03D12F602B6822335B
:10274000E4E722314B42C3F30903C1F3090158BF47
:102750005942435CFA2B08BF2960EFE7BDE8F883D4
:10276000A80B0020A4060020080000209C060020E2
:10277000A806002004070020A1060020270700204B
:102780000649002001235A5C01331044232B80B2F8
:10279000F9D1C0B2B0FA80F04009704704070020B8
:1027A000F8B52DED028BFFF7EBFF0128074676D138
:1027B0003F4D404CAB7A23706B7A63702B7AA370D9
:1027C000EB79E3703C4E23683360AB7B23706B7B0B
:1027D00063702B7BA370EB7AE370AB7CD4ED007A53
:1027E00023706B7C63702B7CA370EB7BE370F1EE4A
:1027F000677AC6ED017AD4ED007A6B7E2370F1EE34
:10280000677AC6ED027A2B7E6370EB7DA370AB7D99
:10281000E370D4ED007A9FED298A67EE887A17EE8F
:10282000900AFDF791FE20A3D3E90023FEF70AF8F2
:10283000FEF7B6F96B7F23702B7F6370EB7EA3707E
:10284000AB7EE370D4ED007AF06067EEC87A17EEE5
:10285000900AFDF779FE14A3D3E90023FDF7F2FFF8
:10286000FEF79EF995F82130237095F820306370BB
:10287000EB7FA370AB7FE370D4ED007A306167EE3D
:10288000C87A17EE900AFDF75FFE07A3D3E900238D
:10289000FDF7D8FFFEF784F9094B70611F70BDEC9E
:1028A000028BF8BDAFF300801E264454FB21094083
:1028B00004070020E8060020EC0600200000344356
:1028C000A006002010B5054CFFF77CFE23781BB155
:1028D000FFF766FF0023237010BD00BFA106002094
:1028E00082B00C4B002100915A6C42F480425A6431
:1028F0005A6C02F480420092009A01911A6C42F0E4
:1029000080521A641B6C03F080530193019B02B048
:10291000704700BF003802407047FEE7FEE7FEE761
:10292000FEE7704770477047FEF750BB0148FEF75F
:10293000ADBC00BFA80B00200148FFF7AFBC00BF33
:10294000080C00200148FFF7B9B800BF280B002091
:102950000148FFF7B3B800BF680B002070B50E4602
:1029600015460C46A31B9D4201DC284670BDAFF303
:10297000008004F8010BF5E708B50A4B1968024618
:1029800009B9094919601868694602448A4206D99A
:1029900000F0A4F90C2303604FF0FF3008BD1A606B
:1029A00008BD00BFAC060020980C00204FF0FF309F
:1029B00070474FF400534B60002070470120704770
:1029C000002070470F49D1F8883043F47003C1F8F4
:1029D00088300D4B1A68002042F001021A6098609E
:1029E0001A6822F0847222F480321A60074A5A6010
:1029F0001A6822F480221A60D8604FF000638B605E
:102A0000704700BF00ED00E00038024010300024A5
:102A100013B50E4A0E4842F2CF03002480E80C00A2
:102A20000923009401948460C3608461FFF74EF928
:102A300008B1FFF7C5FD6946054800940194FFF70A
:102A40005FF908B1FFF7BCFD02B010BD00100040F7
:102A5000280B002013B50F4A0F4842F2CF03002481
:102A600080E80C0042F20F73009401948460C3600C
:102A70008461FFF72BF908B1FFF7A2FD694606480C
:102A800000940194FFF73CF908B1FFF799FD02B0FB
:102A900010BD00BF00140040680B002007B503689C
:102AA000164A934215D10022154B0092196C41F041
:102AB000100119641B6C03F01003009336201146BB
:102AC000009BFEF7A7FA3620FEF7D8FA03B05DF8B0
:102AD00004FB0C4A9342F9D10022094B0192196C74
:102AE00041F0200119641B6C03F02003019337208F
:102AF0001146019BFEF78EFA3720E5E700100040F3
:102B0000003802400014004008B50B480B4B4FF44E
:102B1000612E80E808400C2200238360C3600361BB
:102B200042618361C361FFF75BFA18B1BDE80840F9
:102B3000FFF746BD08BD00BF080C0020004C004058
:102B400008B50B480B4B4FF4612E80E808400C226F
:102B500000238360C360036142618361C361FFF747
:102B60003FFA18B1BDE80840FFF72ABD08BD00BF15
:102B7000480C00200044004070B514228AB006467C
:102B800000210DEB020000F0DEF83368384A934272
:102B90002CD1384B3848002401941A6C42F400229E
:102BA0001A641A6C02F400220192019A02941A6BC0
:102BB00042F001021A631B6B03F001030293029BB4
:102BC000022203230593069208930122082305A9F4
:102BD00007920993FEF714FC342022462146FEF7A3
:102BE00019FA3420FEF74AFA0AB070BD234A93421C
:102BF000FAD100251F4B03951A6C1F48204C42F454
:102C000000321A641A6C02F400320392039A04959B
:102C10001A6B42F001021A631B6B03F00103049369
:102C2000049B0C230593022306930123079303239C
:102C3000089305A907230993FEF7E2FB114AA56053
:102C40004FF0006384E80C004FF48063236120465A
:102C50004FF48073E5606561A561E361256265629B
:102C6000FEF746FA08B1FFF7ABFC7463A663BBE757
:102C7000004C004000380240000002400044004088
:102C8000A80B002088600240DFF834D0002103E068
:102C90000C4B5B58435004310B480C4B42189A4282
:102CA000F6D30B4A02E0002342F8043B094B9A4258
:102CB000F9D3FFF787FE00F017F8FFF72BFC7047FA
:102CC00000000220E86A00080000002080060020C2
:102CD00080060020980C0020FEE70000014B1868D9
:102CE000704700BF1000002070B50D4E0D4CA41BA6
:102CF000A4100025A54209D10B4E0C4C03F060FD39
:102D0000A41BA4100025A54205D170BD56F825309E
:102D100098470135EEE756F8253098470135F2E738
:102D2000E06A0008E06A0008E06A0008E46A000857
:102D300010B5431E0A44914200D110BD11F8014B59
:102D400003F8014FF7E702440346934200D170476E
:102D500003F8011BF9E700000FB40A4B13B51C6818
:102D600024B1A36913B9204602F07AF805AB049A9E
:102D7000A1680193204600F007F802B0BDE81040BA
:102D800004B07047100000202DE9F04FBDB0884618
:102D900015461C461F46834602F012FA03680D933F
:102DA0001846FDF765FA0990BBF1000F05D0DBF876
:102DB000183013B9584602F053F8994B984537D15B
:102DC000DBF80480D8F86430D80707D4B8F80C30A2
:102DD000990503D4D8F8580002F002FAB8F90C307B
:102DE0009A0409D443F40053A8F80C30D8F864309E
:102DF00023F40053C8F86430B8F80C301E0702D52D
:102E0000D8F8103003BB4146584601F039F8D8B124
:102E1000D8F86430DD0707D4B8F80C309C0503D42B
:102E2000D8F8580002F0DDF94FF0FF330A9326E09E
:102E30007C4B984502D1DBF80880C3E77A4B984574
:102E400008BFDBF80C80BDE7B8F80C3003F01A02BD
:102E50000A2A18D1B8F90E20002A14DBD8F8642009
:102E6000D00705D4990503D4D8F8580002F0B9F971
:102E700023462A464146584600F0C2FF0A900A9867
:102E80003DB0BDE8F08F9FED647B8DED067B0023A8
:102E90002CAC1F94219320930595039311931093C9
:102EA0000A93059D2B4613F8012B12B1252A40F0F9
:102EB0008380059BEE1A0DD084E84800219B3344A3
:102EC0002193209B0133072B209377DC08340A9B46
:102ED00033440A932B78002B00F039870023691CB8
:102EE0008DF85F301A464FF0FF3A0B931D460A20CB
:102EF0004E1C09780596029102992039582900F252
:102F00001D84DFE811F0B3001B041B04B8001B0490
:102F10001B041B041B041B041B04BB0065001B04D7
:102F2000C400C7001B04E400E700E700E700E70077
:102F3000E700E700E700E700E7001B041B041B04B1
:102F40001B041B041B041B041B041B041B041B018C
:102F500031011B0431011B041B041B041B04FA0078
:102F60001B041B0446031B041B041B041B041B043F
:102F7000AD031B041B0493001B041B041B041B0454
:102F80001B041B041B041B041B041B040D016B000E
:102F9000310131013101FD006B001B041B040001F4
:102FA0001B04280348037C0307011B048D031B0437
:102FB000AF031B041B04C7031D4673E71FAA41464A
:102FC000584602F0C0FE002840F099862CAC7EE7FF
:102FD00001232B2205998BE70F46FBE70BB18DF8F8
:102FE0005F20AA0640F1B080073727F0070707F1F6
:102FF0000803D7E900670493002E77F1000306DA8F
:1030000076424FF02D0367EB47078DF85F300123C1
:10301000D0E200BFAFF3008000000000000000001D
:103020008C680008AC6800086C6800080BB18DF86B
:103030005F20A24B1193A90640F13183073727F097
:10304000070707F10803D7E900670493EB070BD5DF
:1030500056EA070308D030238DF860309DF8083019
:103060008DF8613045F002050223A0E2002AB1D1BB
:1030700001232022AEE745F00105ABE73E680B9641
:10308000002E07F10401A7DA76420B960F4645F0B1
:1030900004059FE705994E1C097802912A2910D052
:1030A0004FF0000A05960299303909293FF624AFFE
:1030B00000FB0A1A05990E4616F8011B02910596A7
:1030C000F1E73968059641EAE17A043782E745F08D
:1030D00080057FE700210B9102990B9E303900FBA0
:1030E00006110B9105990E4616F8011B02910299E3
:1030F000059630390929EFD9FEE645F0080569E75C
:1031000045F0400566E7059909786C2905D10599D0
:103110000131059145F020055CE745F0100559E7C0
:103120003B1D049300263B688DF888308DF85F6066
:103130004FF0010A08960DF188091EE10BB18DF8D8
:103140005F2045F010054CE715F0100F07F1040360
:1031500003D03E680493F7174EE73E68049315F0DA
:10316000400F18BF36B2F6E70BB18DF85F20073776
:1031700027F0070707F10803049397ED007B8DED17
:10318000067B069B1293079B23F0004313934FF09B
:10319000FF324B4BDDE91201FDF7C4FC002840F083
:1031A000E3854FF0FF32464BDDE91201FDF79CFC51
:1031B000002840F0D98500220023DDE90601FDF753
:1031C00089FC10B12D238DF85F303E4B3E4A0299A9
:1031D00025F080054729CCBF914699464FF0030A58
:1031E00000260896C9E0BAF1FF3F22D0029B23F0E7
:1031F0002003472B04D1BAF1000F08BF4FF0010A9A
:1032000045F480731493079B002B15DA069B0E93ED
:10321000079B03F100430F932D230C93029B23F094
:103220002007462F0ED0452F46D10AF10106022174
:103230000AE04FF0060AE3E79DED067B00238DEDE3
:103240000E7BEAE7564603211DAB01931AAB0093B0
:10325000324619AB9DED0E0B584600F00DFF472F7F
:10326000814602D1EB0740F18C8509EB0603462F1E
:10327000039311D199F80030302B09D1002200239B
:10328000DDE90E01FDF71CFC10B9C6F10106199627
:10329000039A199B1A44039200220023DDE90E01D0
:1032A000FDF70EFC90B930221D9B039999420FD96E
:1032B000591C1D911A70F7E75646B8E718680008C0
:1032C000FFFFEF7F086800080C680008039B1D9350
:1032D0001D9B472FA3EB0903039340F0F880199B34
:1032E000DF1C02DB9A4580F21F81029B023B0293A6
:1032F000199A9DF808108DF86C10531E002B199325
:10330000B6BFC2F101032B222D22092B8DF86D20AF
:1033100040F3FA800DF17B020A2693FBF6F006FBE0
:1033200010333033092802F8013C02F1FF31034623
:1033300000F3E380303301F8013C023A0DF16E03F3
:103340000DF17B0082421946C0F0D980039A1BAB75
:10335000CB1A012A109303EB020A03DC15F00103D8
:10336000089303D0099B9A44002308930C9B13B144
:103370002D238DF85F30149D002656453346B8BF87
:1033800053460C939DF85F3013B10C9B01330C93A3
:1033900015F0020314931EBF0C9B02330C9315F01F
:1033A0008403159314D10B9B0C9A9F1A002F0FDDE9
:1033B000A84B2360102F00F3D381219B67601F442B
:1033C000209B21970133072B209300F3E0810834E1
:1033D0009DF85F3073B10DF15F03236001236360DB
:1033E000219B01332193209B0133072B209300F372
:1033F000D8810834149B6BB118AB2360022363603F
:10340000219B02332193209B0133072B209300F350
:10341000D2810834159B802B14D10B9B0C9A9F1AD8
:10342000002F0FDD8C4B2360102F00F3CE81219BEA
:1034300067601F44209B21970133072B209300F3E3
:10344000DD810834A6EB0A06002E0FDD824F2760CF
:10345000102E00F3DD81209B219866600133064425
:10346000072B2196209300F3EA810834E90500F147
:10347000F081219B84E8000653442193209B013373
:10348000072B209340F31B841FAA4146584602F0A5
:103490005AFC002840F033842CAC680700F11284F9
:1034A0000A9B0B9A0C998A42ACBF9B185B180A9333
:1034B000219B3BB11FAA4146584602F044FC00281C
:1034C00040F01D8400232093049F2CACE9E4029B70
:1034D000652B7FF70DAF029B662B25D1199B002B27
:1034E0001ADDBAF1000F01D1EE0702D5099A134493
:1034F0005344199A08929A4638E70A460DE712F89B
:10350000011B03F8011B1DE7302213448DF86E20C8
:103510008DF86F301CA919E7BAF1000F01D1ED0742
:1035200015D5099B0133E3E7199A039B9A4206DB01
:10353000E8070ED5099B134467220292D9E7039B43
:103540000999002A0B44F7DCC2F10102F3E70123D9
:10355000CFE71346F0E70BB18DF85F2015F0200F91
:1035600007F1040308D00A993A68CE170846314695
:10357000C2E900011F4694E4E90603D53A680A99B6
:103580001160F7E76A06F9D53A68BDF8281011808E
:10359000F0E745F0100515F0200322D0073727F09B
:1035A000070707F10803D7E9006704930023002207
:1035B0008DF85F20BAF1FF3F00F0E88325F080022C
:1035C000089256EA070240F0E683BAF1000F00F0D5
:1035D000A980012B75D0022B00F0908000260027D7
:1035E000DFE33A1D15F01001049202D03E68002777
:1035F000DDE715F04003F9D03E880027D6E73B1DF4
:103600000493302378228DF86030144B3E68119378
:10361000002745F002058DF8612002230292C6E7DB
:103620003B1D0026BAF1FF3F0493D7F800908DF8B8
:103630005F600AD0524631464846FCF7C9FD002873
:1036400000F08C80A0EB090ACBE54846FCF710FEA1
:103650008246C6E53C6800084C68000829680008F6
:1036600045F01005AE0609D5073727F0070707F123
:103670000803D7E900670493012398E73B1D15F081
:10368000100F049301D03E6802E06806FBD53E8827
:103690000027F1E70BB18DF85F20A24BCAE43B1D78
:1036A00015F0100F049301D03E6802E06A06FBD5C6
:1036B0003E880027CAE44B4674E3002F08BF0A2E59
:1036C00005D20DF1F009303609F8416D85E30DF1B1
:1036D000B009304639460A220023FDF7B1FA3032EC
:1036E00009F8012D0023304639460A22FDF7A8FAD1
:1036F00006460F4656EA0703EBD16EE30026002785
:103700000DF1B00906F00F03119AD35C09F8013DE1
:10371000330943EA07733A091E46174656EA070378
:10372000F0D15AE33BB9E80705D50DF1F009302394
:1037300009F8413D51E30DF1B0094EE30BB18DF8AD
:103740005F20029B002B00F002839DF808308DF86B
:10375000883000268DF85F600497E9E4064640E56E
:1037600010236360219B10332193209B0133072B8F
:10377000209302DC0834103F1AE61FAA414658463F
:1037800002F0E1FA002840F0BA822CACF3E71FAA5D
:103790004146584602F0D7FA002840F0B0822CACDF
:1037A00016E61FAA4146584602F0CDFA002840F01E
:1037B000A6822CAC1EE61FAA4146584602F0C3FA68
:1037C000002840F09C822CAC24E610226260219AF2
:1037D00010322192209A0132072A209202DC08340A
:1037E000103F20E61FAA41465846149302F0ABFA58
:1037F000002840F084822CAC149BF1E71FAA4146BC
:10380000584602F0A0FA002840F079822CAC19E664
:1038100010236360219B10332193209B0133072BDE
:10382000209302DC0834103E11E61FAA4146584698
:1038300002F089FA002840F062822CACF3E71FAA5C
:103840004146584602F07FFA002840F058822CACDE
:103850000CE6029B652B40F3AD8100220023DDE9DD
:103860000601FDF72DF9002862D02F4B23600123BC
:103870006360219B01332193209B0133072B20930D
:1038800025DC0834199B039A934202DBEA077FF593
:1038900004AE0D9B2360099B6360099A219B13442E
:1038A0002193209B0133072B20931ADC0834039BC0
:1038B0005E1E002E7FF7F1AD1C4F4FF01009102E49
:1038C000276018DC6660219B1E442196D6E51FAA5E
:1038D0004146584602F037FA002840F010822CACDE
:1038E000D0E71FAA4146584602F02DFA002840F0C2
:1038F00006822CACDBE7219BC4F8049010332193A3
:10390000209B0133072B209302DC0834103ED6E7BE
:103910001FAA4146584602F016FA002840F0EF81EF
:103920002CACF3E7296800083A6800084C680008E6
:10393000199B002B7ADC9D4B236001236360219B44
:1039400001332193209B0133072B209344DC08345F
:10395000199B23B9039B13B9EB077FF59EAD0D9B14
:103960002360099B6360099A219B13442193209B48
:103970000133072B209339DC04F10803199E002E34
:1039800019DA8B4F76421024102E1F6038DC219AF2
:103990005E601644209A21960132072A03F108033B
:1039A000209208DD1FAA4146584602F0CCF90028B3
:1039B00040F0A5812CAB039A5A600399219AC3F871
:1039C00000900A442192209A0132072A20923FF760
:1039D0005BAD03F1080460E51FAA4146584602F0BA
:1039E000B2F9002840F08B812CACB1E71FAA414608
:1039F000584602F0A8F9002840F081812CABBDE7C1
:103A0000219A5C6010322192209A0132072A20927A
:103A100002DC0833103EB7E71FAA4146584602F0C1
:103A200092F9002840F06B812CABF3E7089B039AD6
:103A30009342A8BF1346002B1E460BDD6360219BFB
:103A4000C4F8009033442193209B0133072B20932B
:103A500062DC0834089B002EA8BF9B1B002B1E466F
:103A60000FDD534F4FF0100A102E27605EDC219BB4
:103A700066601E44209B21960133072B20936CDC4B
:103A80000834199B039A934201DBEF070DD50D9B78
:103A90002360099B6360099A219B13442193209B17
:103AA0000133072B209362DC0834039B089A9E1A8B
:103AB000199B039AD31A9E42A8BF1E46002E0CDD06
:103AC000089B4B4484E84800219B33442193209B6E
:103AD0000133072B209354DC0834199B039A002EE2
:103AE000A2EB0303ACBF9E1B1E46002E7FF7D5AC96
:103AF0002F4F4FF01009102E27607FF7E3AE219B68
:103B0000C4F8049010332193209B0133072B20939A
:103B100041DC0834103EEEE71FAA4146584602F049
:103B200012F9002840F0EB802CAC93E7219BC4F8FD
:103B300004A010332193209B0133072B209302DC38
:103B40000834103E90E71FAA4146584602F0FBF8A1
:103B5000002840F0D4802CACF3E71FAA4146584619
:103B600002F0F1F8002840F0CA802CAC89E71FAAC7
:103B70004146584602F0E7F8002840F0C0802CACDF
:103B800093E71FAA4146584602F0DDF8002840F0AE
:103B9000B6802CACA1E71FAA4146584602F0D3F8E4
:103BA000002840F0AC802CACB4E700BF3A680008B5
:103BB0004C680008039B012B01DCEE0776D501233E
:103BC0006360219BC4F8009001332193209B013353
:103BD000072B209336DC08340D9B2360099B636020
:103BE000099A219B13442193209B0133072B209397
:103BF00031DC083400230022DDE90601FCF760FF18
:103C0000039B5E1E00282FD109F1010384E84800C0
:103C1000219B039A013B13442193209B0133072BE3
:103C200020934ADD1FAA4146584602F08CF800282E
:103C300065D12CAC1BAB2360109B6360109A219B59
:103C400013441AE41FAA4146584602F07CF80028A3
:103C500055D12CACC0E71FAA4146584602F073F874
:103C600000284CD12CACC5E7002EE3DD604F4FF0AF
:103C70001009102E276004DC219B66601E442196EB
:103C8000CBE7219BC4F8049010332193209B013390
:103C9000072B209302DC0834103EEAE71FAA4146B6
:103CA000584602F050F850BB2CACF5E70123636096
:103CB000219BC4F800900133AEE70834BAE708341A
:103CC000FFF7EBBB0B9B0C9A9D1A002D7FF7E8AB1F
:103CD0001026484B2360102D24DC219B65601D4479
:103CE000209B21950133072B20937FF7D9AB1FAA87
:103CF0004146584602F027F800283FF4D1ABD8F8E7
:103D00006430D90707D4B8F80C309A0503D4D8F832
:103D1000580001F066FAB8F80C305B067FF5AFA8E2
:103D2000FFF782B8219B666010332193209B0133FB
:103D3000072B209302DC0834103DCAE71FAA414636
:103D4000584602F000F80028D9D12CACF4E7219BAA
:103D500013B900232093D2E71FAA4146584601F029
:103D6000F2FF0028F5D0CAE7DDE906231046194620
:103D7000FCF7D8FE00283FF436AA1F4B1F4AFFF776
:103D800026BA1D9B1B1A0393FFF7A9BA56EA07022E
:103D900008953FF41EAC012B3FF48FAC022B3FF48F
:103DA000AFAC2CABF10841EA4771F80806F0070206
:103DB00007460E46303256EA070103F1FF3903F891
:103DC000012C7FF478AC0899CD0706D5302A04D0B1
:103DD000302209F8012CA3F10209564600230DF107
:103DE000B00A089D0893AAEB090AFFF7C6BA00BFFC
:103DF0004C6800083C680008106800081468000857
:103E0000F0B50C46ADF26C4D1F468989636E19936F
:103E1000E389ADF80E3021F00201236AADF80C10F1
:103E200008931AA9A36A0A9315460023064600912F
:103E3000049116A84FF4806102910591069301F058
:103E4000CDF92A463B4669463046FEF79DFF051EE2
:103E500007DB6946304600F06FFF002818BF4FF0BF
:103E6000FF35BDF80C3016985B0642BFA38943F0BE
:103E70004003A38101F0B3F928460DF26C4DF0BD6B
:103E8000324B70B51D6806460C4625B1AB6913B9B7
:103E9000284600F0E5FF2E4B9C420FD16C68B4F928
:103EA0000C309AB215072CD4D00611D409223260F6
:103EB00043F04003A3814FF0FF3070BD254B9C427F
:103EC00001D1AC68EBE7244B9C4208BFEC68E6E705
:103ED000510712D5616B41B104F14403994202D0FC
:103EE000304601F093F800236363A38923F0240391
:103EF000A3810023636023692360A38943F008033F
:103F0000A38123694BB9A38903F42073B3F5007F20
:103F100003D02146304601F091F9A28912F0010345
:103F20000CD00023A36063695B42A361236953B98A
:103F3000B4F90C3013F08000BAD170BD920758BFAD
:103F40006369A360F2E70020F7E700BF10000020DC
:103F50008C680008AC6800086C6800082DE9F74F11
:103F600003690C699C42804600F38280013C01F1A8
:103F700014074FEA840E00F1140657F8245056F83F
:103F8000240006EB0E03013507EB0E090193B0FB8D
:103F9000F5F595B34FF0000A3846B446D34650F8CD
:103FA000042B93B205FB03A34FEA134A9BB2ABEB7E
:103FB0000303120CBCF800B005FB02A213FA8BF34A
:103FC0004FEA124A1FFA82FBDCF80020CBEB1242C8
:103FD00002EB23429BB243EA024381454FEA224B64
:103FE0004CF8043BDBD256F80E3033B9019B043B4E
:103FF0009E421A4630D3C8F81040404601F089FD71
:10400000002825DB013530464FF0000E57F8042B11
:10401000D0F800C093B2AEEB0303120C13FA8CF38A
:10402000C2EB1C4202EB23429BB243EA0243B94576
:104030004FEA224E40F8043BE8D256F8242006EB23
:1040400084032AB9043B9E421A460BD3C8F8104099
:10405000284603B0BDE8F08F1268043B002ACAD19D
:10406000013CC5E71268043B002AEFD1013CEAE7B6
:104070000020EEE7000000002DE9F04F57EC106B38
:1040800097B0CDE90067466A079104460A920F93FC
:10409000209D3EB9102001F011F9606246608660F3
:1040A0000660C660636A196851B15A684A600123A4
:1040B00093408B60204601F057FB636A00221A6030
:1040C000019B002BBFBF01232B60019B23F000430A
:1040D000B2BF019300232B60DDF80480A84B33EAC4
:1040E00008031BD10F9A42F20F731360009B23B990
:1040F000C8F31300002800F07885219B53B9A14B29
:1041000021E0A14B02930833219A1360029817B063
:10411000BDE8F08F9B4B02930333F5E7DDE90067C1
:104120000022002330463946FCF7CAFC814660B1C4
:104130000F9A01231360219B002B00F05385934BB2
:10414000219A1360013B0293E0E714AA15A947ECFA
:10415000106B204601F055FDC8F30A558246002D2C
:104160007ED0C7F3130343F07F51304641F4401132
:10417000A5F2FF35CDF848900022854BFCF784F876
:1041800079A3D3E90023FCF733FA79A3D3E9002319
:10419000FCF77CF8064628460F46FCF7C3F976A3E1
:1041A000D3E90023FCF724FA02460B463046394691
:1041B000FCF76CF806460F46FCF7CAFC0022834663
:1041C000002330463946FCF785FC58B15846FCF7C9
:1041D000A9F902460B4630463946FCF771FC08B98E
:1041E0000BF1FF3BBBF1160F59D86A4901EBCB012C
:1041F000DDE90023D1E90001FCF78AFC002850D05A
:104200000BF1FF3B00230E93149B5D1B6B1E06936B
:1042100045BFC5F101030593002300234CBF06935E
:104220000593BBF1000F3EDB069BCDF82CB05B4441
:10423000069300230893079B092B00F2AF80052B00
:10424000C4BF043B0793079BA3F10203CCBF002626
:104250000126032B00F2AE80DFE803F082842F7783
:10426000159B149D1D4405F23243202B11DD009A4D
:1042700005F21240C3F1400322FA00F008FA03F3FA
:104280001843FCF73FF90123A1F1F871013D1293A6
:1042900072E7C3F12000009B03FA00F0F1E701236D
:1042A000B1E70E90B0E7059BA3EB0B030593CBF1B1
:1042B0000003089300230B93BDE7012309930A9B96
:1042C000002B7ADD04930393656A00226A6004215F
:1042D00001F114029A4275D96968204601F010FA7A
:1042E000636A28601B680293039B0E2B00F2E58033
:1042F000002E00F0E2809DED007BBBF1000F8DED04
:104300000C7B74DD234A0BF00F034FEA2B1602EBF4
:10431000C303F006D3E9008959D51F4B51EC170BA5
:10432000D3E90823FCF78EFACDE9000106F00F0669
:104330000325194F002E4CD142464B46DDE90001C2
:10434000FCF780FACDE900016AE0012309930A9B9A
:104350005B4404930133012B0393B8BF0123B3E7FC
:104360000023ABE70023F1E761436F63A787D23FE8
:10437000B3C8608B288AC63FFB799F501344D33F54
:104380000000F07F656800085C6800083B68000872
:104390000000F83FF8680008D068000801260023F4
:1043A000079309964FF0FF330493039300221223DF
:1043B0000A9289E701230993F4E701230493039305
:1043C0001A46F5E76A6801326A60490080E702250B
:1043D000AFE7F10708D540464946D7E90023FCF787
:1043E00007F901358046894676100837A2E700F0C4
:1043F0009D80CBF100069F4B9F4F06F00F0203EB11
:10440000C203D3E90023DDE90C01FCF7F1F8CDE9A3
:104410000001361100230225002E7CD1002B91D102
:104420000E9B002B00F08480DDE900890022934B75
:1044300040464946FCF74EFB002879D0039B002BF1
:1044400076D0049B002B34DD00228D4B404649463C
:10445000FCF7CEF8CDE90001049E0BF1FF370135E2
:104460002846FCF75FF8DDE90023FCF7C1F80022DD
:10447000844BFBF70BFF8046A1F15079002E5AD1F7
:104480000022814BDDE90001FBF7FEFE42464B4670
:10449000CDE90001FCF73CFB002840F09B8242463E
:1044A00009F10043DDE90001FCF714FB002840F0AE
:1044B0008F82DDE90C23CDE90023159B002BC0F290
:1044C0005081BBF10E0F00F34C816A4B03EBCB0321
:1044D000D3E900890A9B002B80F2DA80039B002B32
:1044E00000F3D68040F073820022674B4046494675
:1044F000FCF77EF8DDE90023FCF700FB039E37465E
:10450000002840F04A82029B029A5D1C31231370FE
:104510000BF1010B45E2F20705D5D7E90023FCF7C3
:1045200067F8013501237610083775E7022577E72C
:104530005F46039E94E7029A4E4B32441392099AC7
:10454000711E002A48D003EBC103D3E900230020E9
:104550004E49FCF777F942464B46FBF795FE029D24
:1045600080468946DDE90001FCF7F2FA0646FBF7D2
:10457000D9FF02460B46DDE90001FBF785FE303628
:1045800005F8016B42464B46CDE90001FCF7A2FA63
:10459000002865D1DDE9002300203849FBF774FECF
:1045A00042464B46FCF796FA002840F0BA80139B2F
:1045B0009D423FF47EAF0022314B40464946FCF716
:1045C00017F80022804689462D4BDDE90001FCF7F3
:1045D0000FF8CDE90001C5E703EBC10142464B46A8
:1045E000D1E90001FCF704F8CDE91001029DDDE9F5
:1045F0000001FCF7ADFA0646FBF794FF30360246A1
:104600000B46DDE90001FBF73FFE05F8016B139B4C
:10461000AB42804689464FF0000225D11B4BDDE9B5
:104620001001FBF733FE02460B4640464946FCF7B5
:104630006FFA002875D1DDE9102300201349FBF73C
:1046400023FE02460B4640464946FCF743FA002843
:104650003FF42FAF15F8013C302B05F1FF3201D0AC
:10466000BB464DE01546F5E7054BFBF7C1FFCDE92D
:104670000001BCE7F8680008D06800080000F03FBF
:104680000000244000001C40000014400000E03FF7
:10469000DDE90067029D42464B4630463946FCF74D
:1046A000D1F8FCF755FA0090FBF73CFF42464B4629
:1046B000FBF79EFF02460B4630463946FBF7E4FD0A
:1046C000009E039F303605F8016B029EAE1BB74279
:1046D00002460B4638D1FBF7D9FD06460F46024687
:1046E0000B4640464946FCF7F5F9C8B932463B4609
:1046F00040464946FCF7E4F910B1009BDB070FD4B4
:104700005146204601F030F800230F9A2B700BF130
:1047100001031360219B002B3FF4F8AC1D60F5E40E
:104720005F4615F8012C392A05F1FF3306D1029AAC
:104730009A4207D130231370013713461A78013299
:104740001A708DE71D46ECE70022A44BFBF750FFE3
:104750000022002306460F46FCF7B2F900289AD043
:10476000CEE7099A002A00F0CD80079A012A00F3CB
:10477000AF80129A002A00F0A78003F23343089E0C
:10478000059D059A1A440592069A01211A4420466D
:10479000069201F089F80746002D0CDD069B002BE0
:1047A00009DDAB42059AA8BF2B46D21A0592069A9C
:1047B000ED1AD31A0693089BF3B1099B002B00F066
:1047C000A580002E10DD39463246204601F002F960
:1047D000524601460746204601F06FF85146804692
:1047E000204600F0C1FFC246089B9A1B04D05146E8
:1047F000204601F0EFF882460121204601F054F8EE
:104800000B9B002B064640F383801A460146204648
:1048100001F0E0F8079B012B06467CDD4FF0000815
:10482000336906EB8303186900F0F0FFC0F1200044
:10483000069B184410F01F0000F09680C0F1200382
:10484000042B40F38780059BC0F11C0003440593B3
:10485000069B054403440693059B002B05DD51464A
:104860001A46204601F004F98246069B002B05DD1E
:1048700031461A46204601F0FBF806460E9B002BF7
:1048800074D03146504601F044F900286EDA002316
:1048900051460A22204600F07EFF099B0BF1FF3BA8
:1048A0008246002B00F0A881002339460A222046C8
:1048B00000F071FF049B002B074600F3C880079BA4
:1048C000022B40F3C48059E0149BC3F1360356E732
:1048D000039B5E1E089BB342BFBF089B0896F21A5B
:1048E0000B9BB6BF9B189E1B0B93039BB8BF002668
:1048F000002BB9BF059B039A059D039BBCBF9D1A66
:1049000000233EE7089E059D099F45E7089A6EE74C
:10491000079B012B19DC009BBBB9019BC3F313035D
:104920009BB9019B23F000431B0D1B0583B1059B25
:1049300001330593069B013306934FF001080B9B4F
:10494000002B7FF46DAF012072E74FF00008F6E70F
:104950009846F4E780D0059A1C331A440592069ACB
:104960001A441D44134676E70346F4E7039B002BE5
:1049700036DC079B022B33DD039B0493049B63B956
:1049800031460522204600F006FF01460646504605
:1049900001F0BFF800283FF7B6AD0A9B029D6FEA11
:1049A000030B002303933146204600F0DDFE002F69
:1049B0003FF4A6AE039B2BB1BB4203D01946204661
:1049C00000F0D2FE3946204600F0CEFE98E60026E2
:1049D0003746E2E7BB46374695E500BF0000244076
:1049E000099B93BB039B0493029D31465046FFF7FE
:1049F000B5FA00F1300905F8019B029B049AEB1A05
:104A00009A4200F3DC80029B012AACBF9B18013361
:104A100098460023039351460122204601F028F8CE
:104A20003146824601F075F8002800F38D8003D1ED
:104A300019F0010F40F08880454615F8013C302BF5
:104A400005F1FF32AFD11546F7E7039B0493002D24
:104A500005DD39462A46204601F00AF80746B8F136
:104A6000000F4CD07968204600F04AFE3A690232C5
:104A70000546920007F10C010C30FEF759F90122AE
:104A80002946204600F0F4FF009BDDF808800397DC
:104A900003F001030746059331465046FFF75EFADF
:104AA0000399054600F13009504601F032F83A46C4
:104AB00000903146204601F046F8C368024603BB29
:104AC00001460690504601F024F8069A0346114626
:104AD0002046069300F048FE069BA3B9079A92B9B8
:104AE000059A82B9B9F1390F29D0009B002B01DD5D
:104AF00005F1310908F1010588F8009053E73846BF
:104B0000C2E70123E3E7009A002A04DB25D1079AD4
:104B10001ABB059A0ABB002BECDD51460122204648
:104B200000F0A6FF3146824600F0F3FF002803DCC8
:104B3000E0D119F0010FDDD0B9F1390FD8D1392307
:104B400088F8003008F10108454615F8013C392B7A
:104B500005F1FF323BD0013340E0002B08F10105A5
:104B600005DDB9F1390FEAD009F10109C4E7029B6B
:104B7000049A05F8019CEB1A9342A8463FF44BAF08
:104B8000514600230A22204600F005FE039B0399AC
:104B9000BB4282464FF000034FF00A02204604D188
:104BA00000F0F9FD0390074676E700F0F4FD0023DE
:104BB00003900A223946204600F0EDFDF3E7514606
:104BC00000230A22204600F0E6FD82460DE7029B04
:104BD000934205D1029A0BF1010B31231370E2E6E7
:104BE0001546B2E7094BFFF7AEBA219B002B7FF4C5
:104BF00088AA074BFFF7A7BA049B002B3FF7F4AE38
:104C0000079B022B7FF7F0AEB8E600BF3A680008BA
:104C10005C680008B1F90C2093B22DE9F04105461B
:104C200018070C4661D44B6842F40062002B8A815D
:104C300005DC0B6C002B02DC0020BDE8F081E66A8D
:104C4000002EF9D0002312F480522F682B6037D049
:104C5000606DA3895A0705D56368C01A636B0BB1F1
:104C6000236CC01A00230246E66A216A2846B04730
:104C7000431CA38906D129681D294FD82D4ACA4053
:104C8000D6074BD523F400631BB200226260D9041F
:104C90002269A381226004D5421C01D12B6803B98B
:104CA0006065616B2F600029C6D004F1440399420E
:104CB00002D0284600F0AAF900206063BDE8F08128
:104CC000216A01232846B047411CC2D12B68002B22
:104CD000BFD01D2B01D0162B01D12F60ACE7A389CB
:104CE00043F04003A381BDE8F0810F69002FA3D0FA
:104CF0009B070E6808BF4B690F6018BF0023A6EB27
:104D000007088B60B8F1000F96DD43463A46216AEA
:104D1000A66A2846B047002807DCA38943F0400371
:104D2000A3814FF0FF30BDE8F0810744A8EB0008F5
:104D3000E8E700BF0100402038B50B6905460C4686
:104D400013B90025284638BD18B183690BB900F0A6
:104D500087F8144B9C421BD16C68B4F90C30002BC3
:104D6000EFD0626ED00704D4990502D4A06D00F094
:104D700037FA28462146FFF74DFF636EDA070546EE
:104D8000E0D4A3899B05DDD4A06D00F02AFAD9E711
:104D9000054B9C4201D1AC68DFE7044B9C4208BF45
:104DA000EC68DAE78C680008AC6800086C680008FA
:104DB000014900F0E7B900BF515E0008002310B5BB
:104DC000044603604360836081814366C28103615E
:104DD00043618361194608225C30FDF7B4FF054B3F
:104DE0006362054BA362054BE362054B24622363B8
:104DF00010BD00BFC15C0008E35C00081B5D00083B
:104E00003F5D000870B54A1E682555430E4605F102
:104E1000740100F05BFA044640B1002180E84200D2
:104E20000C30A06005F16802FDF78DFF204670BDD3
:104E3000014800F0D5B900BF900C0020014800F0F7
:104E4000D0B900BF900C0020014800F0C9B900BFE4
:104E50008B0C0020014800F0C4B900BF8B0C00206F
:104E600010B50446FFF7F0FFA3691BB1BDE8104081
:104E7000FFF7F0BFC4F8D830C4F8DC30C4F8E03035
:104E8000124B134A1B68A2629C4204BF0123A36118
:104E9000204600F01FF86060204600F01BF8A0607C
:104EA000204600F017F80022E06004216068FFF758
:104EB00085FF01220921A068FFF780FF022212214D
:104EC000E068FFF77BFF0123A361CFE704680008D8
:104ED000B14D0008F8B50746FFF7AAFF1F4B1E6843
:104EE000B36913B93046FFF7BBFFD836B4687368AF
:104EF000013B03D5336833B13668F7E7B4F90C509A
:104F00007DB16834F4E704213846FFF77BFF04469F
:104F100030600028F0D1FFF791FF0C233B60204662
:104F2000F8BD4FF6FF73E3810123A38104F158001C
:104F3000656600F053F9FFF781FF2560A5606560A5
:104F400025616561A5610822294604F15C00FDF731
:104F5000FAFE6563A563A564E564E0E704680008FC
:104F60002DE9F843254FDFF8A0808946064600F07A
:104F7000BBFBBB685D68A8F1110425F00305A4EB39
:104F800009042C44B4FBF8F4013C08FB04F4444548
:104F900005DA304600F0AEFB0020BDE8F8830021C2
:104FA000304600F07DFEBB682B449842F1D161424F
:104FB000304600F075FE013010D10021304600F07F
:104FC0006FFEBA68831A0F2BE3DD0D490968401A9A
:104FD0000C4943F0010308605360DAE7BB68094AF3
:104FE0002D1B45F001055D60136830461C1B1460E5
:104FF00000F080FB0120BDE8F88300BF0401002021
:105000000C050020B0060020800000002DE9F041D2
:1050100004468846002900F0AB8000F065FB58F894
:10502000042C544D22F00100A8F108031F18A968B0
:105030007E688F4226F0030602F001021BD1304445
:105040003AB958F8082C9B1A10449968DA68CA6073
:10505000916040F001025A60AB60474B1B68984278
:1050600004D3464B20461968FFF77AFF2046BDE877
:10507000F04100F03FBB7E60002A39D158F8081C8F
:105080005B1A0844996805F1080E714532D0D3F8CF
:105090000CE0C1F80CE0CEF80810B9194968C9074E
:1050A0000AD43044B9683ABB354EB14224D16B6161
:1050B0002B610122D960996040F0010159601850BC
:1050C000002AD3D1B0F5007F1AD2C0088110012286
:1050D0008A40696801300A436A6005EBC00255F8EE
:1050E00030109960083ADA6045F83030CB60BDE79F
:1050F0000022D2E70122D0E7FE68CE60B160DBE794
:10510000420A042A13D882093832511C05EBC20620
:1051100055F831108E4224D10120921000FA02F28B
:10512000686802436A60DE609960B360DEE7142A53
:1051300001D85B32E9E7542A02D8020B6E32E4E769
:10514000B2F5AA7F02D8C20B7732DEE740F25451A3
:105150008A429ABF820C7C327E22D6E789688E42D0
:1051600004D04A6822F003029042F7D3CE68DAE70F
:10517000BDE8F0810401002010050020E0060020B9
:105180000C0100202DE9F8438046894600F1D8043F
:10519000002614B93046BDE8F883A5686768013F6A
:1051A00001D52468F5E7AB89012B07D9B5F90E3095
:1051B000013303D029464046C84706436835EEE729
:1051C000044B1B68186A044B002808BF1846F030CF
:1051D000704700BF10000020140500207047704782
:1051E0007047704770B50E46B1F90E10002990B0A7
:1051F00014461D4609DAB389002213F080002A60A4
:1052000016D14FF48063236015E001AA00F0F6FE8A
:105210000028F0DB029A02F47042A2F500535A42D1
:105220005A414FF480632A604FF40060236002E02B
:1052300040232360104610B070BD00008B8973B509
:105240009D0706460C4607D504F1470323602361FA
:105250000123636102B070BD01AB6A46FFF7C2FF74
:1052600000990546304600F031F848B9B4F90C30E1
:105270009A05EFD423F0030343F00203A381E3E78D
:105280000D4BB362A389206043F08003A381009B90
:105290006361019B20615BB1B4F90E10304601F0EF
:1052A0000DF828B1A38923F0030343F00103A38180
:1052B000A3891D43A581CDE7B14D0008024B0146EE
:1052C000186800F003B800BF100000202DE9F74F68
:1052D00001F10B04162C814607D934F0070405D5DB
:1052E0000C23C9F80030002631E110248C42F7D39A
:1052F000484600F0F9F9B4F5FC7F9C4D36D204F134
:1053000008022A44A2F1080156688E424FEAD403EB
:1053100002D1D668B24210D07368F268B16823F047
:105320000303CA60334491605A6842F001025A6034
:10533000484600F0DFF9083609E102338C4A2E694D
:10534000964211466DD0706820F00300071B0F2FA6
:1053500047DD331944F0010474606B612B61DA603E
:105360009A6047F001025A603750E1E7630A2AD099
:10537000042B12D8A30938335A1C05EBC202A2F140
:1053800008005668864206D0726822F00302111B9C
:105390000F291CDD013B0133D0E7142B01D85B330F
:1053A000EAE7542B02D8230B6E33E5E7B3F5AA7F67
:1053B00002D8E30B7733DFE740F25452934204D82C
:1053C000A30C7C33D8E73F23D6E77E23D4E700291C
:1053D000F16804DBB368D9608B60B318A4E70E46AC
:1053E000D0E7002F6A612A6105DB3044436843F04F
:1053F000010343609CE7B0F5007F44D2C0088710EA
:10540000012202FA07F76A6801303A436A6005EB45
:10541000C00255F83070B760083AF26045F8306065
:10542000FE6001209A1000FA02F26868824200F2DF
:10543000A180024206D123F003035200024203F18D
:105440000403FAD005EBC30CE0469E46D8F80C6086
:10545000464553D10EF1010E1EF0030F08F1080866
:10546000F4D1980779D16B6823EA02036B6068680E
:10547000520082427ED8002A7CD073460242E1D19B
:1054800004335200FAE7420A042A15D88209383256
:10549000571C05EBC20E55F83770BE4526D10120CA
:1054A000921000FA02F2686810436860C6F80CE0D7
:1054B000B760CEF80860B3E7142A01D85B32E7E79B
:1054C000542A02D8020B6E32E2E7B2F5AA7F02D864
:1054D000C20B7732DCE740F25457BA429ABF820CD3
:1054E0007C327E22D4E7BF68BE4504D07A6822F0C1
:1054F00003029042F7D3D7F80CE0D7E77068F7685B
:1055000020F00300A0EB040ABAF10F0F10DDB2681F
:10551000331944F001047460D760BA604AF00102A4
:105520006B612B61D96099605A6046F800A0FFE674
:10553000BAF1000F0FDB3044436843F001034360CE
:1055400056F8083F4846DF60BB6000F0D3F83046AD
:1055500003B0BDE8F08F3E467AE75CF80809844561
:1055600003F1FF333FF47DAF81E700BF040100206A
:105570000C010020D5F808B0DBF8046026F0030623
:10558000B44203D8331B0F2B00F396804F4A1768A1
:105590004F4A1168103701310BEB0603274405D041
:1055A0004C4901390F44013149420F4039464846C0
:1055B0000192009300F074FBB0F1FF3F804656D09B
:1055C000009B019A834201D9AB4550D14248016802
:1055D000434507EB010EC0F800E04049824613D175
:1055E0000B4211D1AB683E4446F001065E603C4A76
:1055F000DAF8003011688B4288BF1360394A1168AD
:105600008B4288BF136032E0106801301BBFA8EBEB
:1056100003037344C2F80080CAF8003018F0070092
:105620001CBFC0F1080080442A4B474418440F4077
:10563000C71B3946484600F033FB431C08BF4046B1
:10564000DAF80030C5F8088008BF0027A0EB080092
:105650003B44074447F00107AB45CAF80030C8F89F
:105660000470C4D00F2E10D80123C8F80430AB68E2
:105670005A6822F003029442A2EB040301D80F2BD4
:105680001ADC484600F036F82DE6DBF804300C3E14
:1056900026F0070603F001033343CBF804300BEB8D
:1056A000060305220F2E5A609A60A0D90BF108015B
:1056B0004846FFF7ABFC9AE7AE6844F00102344479
:1056C00043F001037260AC60636031E6E0060020E5
:1056D0000C05002080000000B00600207F000000C4
:1056E000D8060020DC0600200148FFF779BD00BF86
:1056F0008C0C00200148FFF774BD00BF8C0C00200B
:1057000070B5456A04460E463DB91020FFF7D6FD38
:105710006062456085600560C560656AEB6883B15D
:10572000636ADB6853F82600B8B9012101FA06F56F
:105730006A1D9200204600F04DFB60B14660856016
:105740000EE021220421204600F044FB636AE86059
:10575000DB68002BE4D1002070BD026843F82620EE
:1057600000230361C36070BD70B5446A06460D46F0
:105770003CB91020FFF7A2FD7062446084600460B1
:10578000C4603DB1736A6A68DB6853F8221029600F
:1057900043F8225070BD2DE9F0410D691F460646C1
:1057A0000C4601F1140E0023DEF8000081B202FB6A
:1057B00001710F0C000C02FB007089B2013301EB88
:1057C00000419D424FEA10474EF8041BECDCD7B174
:1057D000A3689D4212DB616830460131FFF790FFFC
:1057E0002269023204F10C01804692000C30FDF770
:1057F0009FFA21463046FFF7B7FF444604EB850386
:1058000001355F6125612046BDE8F081020C12047C
:105810000346B2B90304102013F07F4F04BF1B02EC
:10582000083013F0704F04BF1B01043013F0404FD9
:1058300004BF9B000230002B06DB5B0003D5013068
:1058400070470020E8E720207047036813F0070244
:1058500001460BD0DA0723D4980749BF5B089B08A1
:1058600001200B605CBF0B600220704798B2A8B9A2
:105870001B0C102013F0FF0F04BF1B0A08301A077F
:1058800004BF1B0904309A0704BF9B080230DA07E3
:1058900002D45B0806D001300B6070471046E9E780
:1058A000002070472020704710B50C460121FFF7FB
:1058B00027FF01224461026110BD2DE9F74F144614
:1058C0000A6923699A42B8BF0B468946BCBFA14604
:1058D0001C46D9F81070D4F810A0D9F80830D9F8BF
:1058E000041007EB0A069E42C8BF0131FFF708FF0C
:1058F00000F1140505EB86082B460022434516D31C
:1059000004F1140209F1140102EB8A0301EB870789
:105910000193019C944213460CD8002E03DD58F8E5
:10592000043D002B54D0066103B0BDE8F08F43F86E
:10593000042BE3E7B3F800A00432BAF1000F20D043
:10594000AE4689464FF0000C59F8044BBEF800B043
:10595000A3B20AFB03B34FEA144BDEF800406344E2
:105960004FEA144C0AFB0BC404EB13449BB243EA0A
:1059700004434F454FEA144C4EF8043BE4D8CEF8AC
:1059800000C032F8029CB9F1000F1FD02B68AE4660
:105990008C464FF0000ABCF80040BEF802B009FB8C
:1059A00004B4A2449BB243EA0A434EF8043B5CF8B9
:1059B000043BBEF800401B0C09FB034303EB1A43F6
:1059C00067454FEA134AE6D8CEF800300435A0E721
:1059D000013EA2E72DE9F843154612F00302064600
:1059E0000F4607D0013A214C002354F82220FFF73C
:1059F000D2FE0746AD1035D0746A3CB91020FFF7CF
:105A00005DFC7062446084600460C460D6F82480E9
:105A1000D8F808404CB940F271213046FFF744FFF6
:105A20000023C8F80800044603604FF00008EB07A5
:105A30000AD5394622463046FFF73FFF39468146B0
:105A40003046FFF791FE4F466D100BD0206838B9F5
:105A5000224621463046FFF730FF2060C0F8008024
:105A60000446E4E73846BDE8F88300BFC069000893
:105A70002DE9F0470C464FEA621A236949680AEBA0
:105A80000309A3680746164609F10105AB4231DB5D
:105A90003846FFF735FE0022804600F11403114618
:105AA00052452ADB20692AEAEA7A04F1140116F049
:105AB0001F0203EB8A0301EB800E22D0C2F1200CFF
:105AC00000200E689640304343F8040B51F8040B55
:105AD0008E4520FA0CF0F4D8186008B109F10205DF
